{
  "contractName": "DADetails",
  "abi": [
    {
      "constant": true,
      "inputs": [
        {
          "name": "",
          "type": "uint256"
        }
      ],
      "name": "eventLogs",
      "outputs": [
        {
          "name": "date",
          "type": "uint256"
        },
        {
          "name": "party",
          "type": "string"
        },
        {
          "name": "description",
          "type": "string"
        },
        {
          "name": "ipfsHash",
          "type": "string"
        }
      ],
      "payable": false,
      "stateMutability": "view",
      "type": "function"
    },
    {
      "constant": true,
      "inputs": [],
      "name": "dateLodged",
      "outputs": [
        {
          "name": "",
          "type": "uint256"
        }
      ],
      "payable": false,
      "stateMutability": "view",
      "type": "function"
    },
    {
      "constant": true,
      "inputs": [],
      "name": "dateApproved",
      "outputs": [
        {
          "name": "",
          "type": "uint256"
        }
      ],
      "payable": false,
      "stateMutability": "view",
      "type": "function"
    },
    {
      "constant": true,
      "inputs": [],
      "name": "daid",
      "outputs": [
        {
          "name": "",
          "type": "string"
        }
      ],
      "payable": false,
      "stateMutability": "view",
      "type": "function"
    },
    {
      "constant": true,
      "inputs": [],
      "name": "lga",
      "outputs": [
        {
          "name": "",
          "type": "string"
        }
      ],
      "payable": false,
      "stateMutability": "view",
      "type": "function"
    },
    {
      "constant": true,
      "inputs": [],
      "name": "description",
      "outputs": [
        {
          "name": "",
          "type": "string"
        }
      ],
      "payable": false,
      "stateMutability": "view",
      "type": "function"
    },
    {
      "constant": true,
      "inputs": [],
      "name": "applicant",
      "outputs": [
        {
          "name": "",
          "type": "address"
        }
      ],
      "payable": false,
      "stateMutability": "view",
      "type": "function"
    },
    {
      "constant": true,
      "inputs": [
        {
          "name": "",
          "type": "uint256"
        }
      ],
      "name": "fileNames",
      "outputs": [
        {
          "name": "",
          "type": "string"
        }
      ],
      "payable": false,
      "stateMutability": "view",
      "type": "function"
    },
    {
      "constant": true,
      "inputs": [],
      "name": "estimatedCost",
      "outputs": [
        {
          "name": "",
          "type": "uint256"
        }
      ],
      "payable": false,
      "stateMutability": "view",
      "type": "function"
    },
    {
      "constant": true,
      "inputs": [],
      "name": "State",
      "outputs": [
        {
          "name": "",
          "type": "uint8"
        }
      ],
      "payable": false,
      "stateMutability": "view",
      "type": "function"
    },
    {
      "inputs": [
        {
          "name": "_daId",
          "type": "string"
        },
        {
          "name": "_dateLodged",
          "type": "uint256"
        },
        {
          "name": "_description",
          "type": "string"
        },
        {
          "name": "_lga",
          "type": "string"
        }
      ],
      "payable": false,
      "stateMutability": "nonpayable",
      "type": "constructor"
    },
    {
      "anonymous": false,
      "inputs": [
        {
          "indexed": false,
          "name": "newState",
          "type": "uint8"
        }
      ],
      "name": "StateChanged",
      "type": "event"
    },
    {
      "constant": false,
      "inputs": [
        {
          "name": "newState",
          "type": "uint8"
        }
      ],
      "name": "ChangeState",
      "outputs": [],
      "payable": false,
      "stateMutability": "nonpayable",
      "type": "function"
    },
    {
      "constant": true,
      "inputs": [],
      "name": "getCurrentState",
      "outputs": [
        {
          "name": "",
          "type": "uint8"
        }
      ],
      "payable": false,
      "stateMutability": "view",
      "type": "function"
    },
    {
      "constant": false,
      "inputs": [
        {
          "name": "_applicant",
          "type": "address"
        },
        {
          "name": "_daid",
          "type": "string"
        },
        {
          "name": "_dateLodged",
          "type": "uint256"
        },
        {
          "name": "_description",
          "type": "string"
        },
        {
          "name": "_lga",
          "type": "string"
        },
        {
          "name": "_estimatedcost",
          "type": "uint256"
        },
        {
          "name": "_dateApproved",
          "type": "uint256"
        }
      ],
      "name": "DALodge",
      "outputs": [],
      "payable": false,
      "stateMutability": "nonpayable",
      "type": "function"
    },
    {
      "constant": false,
      "inputs": [
        {
          "name": "DAApproveResult",
          "type": "bool"
        }
      ],
      "name": "DAApprove",
      "outputs": [
        {
          "name": "",
          "type": "bool"
        }
      ],
      "payable": false,
      "stateMutability": "nonpayable",
      "type": "function"
    },
    {
      "constant": false,
      "inputs": [
        {
          "name": "_applicant",
          "type": "address"
        },
        {
          "name": "_daid",
          "type": "string"
        },
        {
          "name": "_dateLodged",
          "type": "uint256"
        },
        {
          "name": "_description",
          "type": "string"
        },
        {
          "name": "_lga",
          "type": "string"
        },
        {
          "name": "_estimatedcost",
          "type": "uint256"
        },
        {
          "name": "_dateApproved",
          "type": "uint256"
        }
      ],
      "name": "CCLodge",
      "outputs": [],
      "payable": false,
      "stateMutability": "nonpayable",
      "type": "function"
    },
    {
      "constant": false,
      "inputs": [
        {
          "name": "CCApproveResult",
          "type": "bool"
        }
      ],
      "name": "CCApprove",
      "outputs": [
        {
          "name": "",
          "type": "bool"
        }
      ],
      "payable": false,
      "stateMutability": "nonpayable",
      "type": "function"
    },
    {
      "constant": false,
      "inputs": [
        {
          "name": "_applicant",
          "type": "address"
        },
        {
          "name": "_daid",
          "type": "string"
        },
        {
          "name": "_dateLodged",
          "type": "uint256"
        },
        {
          "name": "_description",
          "type": "string"
        },
        {
          "name": "_lga",
          "type": "string"
        },
        {
          "name": "_estimatedcost",
          "type": "uint256"
        },
        {
          "name": "_dateApproved",
          "type": "uint256"
        }
      ],
      "name": "SCLodge",
      "outputs": [],
      "payable": false,
      "stateMutability": "nonpayable",
      "type": "function"
    },
    {
      "constant": false,
      "inputs": [
        {
          "name": "SCApproveResult",
          "type": "bool"
        }
      ],
      "name": "SCApprove",
      "outputs": [
        {
          "name": "",
          "type": "bool"
        }
      ],
      "payable": false,
      "stateMutability": "nonpayable",
      "type": "function"
    },
    {
      "constant": false,
      "inputs": [
        {
          "name": "_applicant",
          "type": "address"
        },
        {
          "name": "_daid",
          "type": "string"
        },
        {
          "name": "_dateLodged",
          "type": "uint256"
        },
        {
          "name": "_description",
          "type": "string"
        },
        {
          "name": "_lga",
          "type": "string"
        },
        {
          "name": "_estimatedcost",
          "type": "uint256"
        },
        {
          "name": "_dateApproved",
          "type": "uint256"
        }
      ],
      "name": "PlanApprove",
      "outputs": [],
      "payable": false,
      "stateMutability": "nonpayable",
      "type": "function"
    },
    {
      "constant": false,
      "inputs": [
        {
          "name": "PlanRegisteredResult",
          "type": "bool"
        }
      ],
      "name": "PlanRegister",
      "outputs": [
        {
          "name": "",
          "type": "bool"
        }
      ],
      "payable": false,
      "stateMutability": "nonpayable",
      "type": "function"
    },
    {
      "constant": true,
      "inputs": [],
      "name": "getGeoFiles",
      "outputs": [
        {
          "name": "",
          "type": "string"
        }
      ],
      "payable": false,
      "stateMutability": "view",
      "type": "function"
    },
    {
      "constant": false,
      "inputs": [
        {
          "name": "fileName",
          "type": "string"
        },
        {
          "name": "fileType",
          "type": "string"
        },
        {
          "name": "uploadedBy",
          "type": "address"
        },
        {
          "name": "ipfsHash",
          "type": "string"
        }
      ],
      "name": "addAttachment",
      "outputs": [
        {
          "name": "",
          "type": "bool"
        }
      ],
      "payable": false,
      "stateMutability": "nonpayable",
      "type": "function"
    },
    {
      "constant": true,
      "inputs": [],
      "name": "getFileNamesCount",
      "outputs": [
        {
          "name": "",
          "type": "uint256"
        }
      ],
      "payable": false,
      "stateMutability": "view",
      "type": "function"
    },
    {
      "constant": true,
      "inputs": [
        {
          "name": "index",
          "type": "uint256"
        }
      ],
      "name": "getFileName",
      "outputs": [
        {
          "name": "",
          "type": "string"
        }
      ],
      "payable": false,
      "stateMutability": "view",
      "type": "function"
    },
    {
      "constant": true,
      "inputs": [
        {
          "name": "fileName",
          "type": "string"
        }
      ],
      "name": "getFileType",
      "outputs": [
        {
          "name": "",
          "type": "string"
        }
      ],
      "payable": false,
      "stateMutability": "view",
      "type": "function"
    },
    {
      "constant": true,
      "inputs": [
        {
          "name": "fileName",
          "type": "string"
        }
      ],
      "name": "getLatestIpfsHash",
      "outputs": [
        {
          "name": "",
          "type": "string"
        }
      ],
      "payable": false,
      "stateMutability": "view",
      "type": "function"
    },
    {
      "constant": true,
      "inputs": [
        {
          "name": "fileName",
          "type": "string"
        }
      ],
      "name": "getAttachmentVersionCount",
      "outputs": [
        {
          "name": "",
          "type": "uint256"
        }
      ],
      "payable": false,
      "stateMutability": "view",
      "type": "function"
    },
    {
      "constant": true,
      "inputs": [
        {
          "name": "fileName",
          "type": "string"
        },
        {
          "name": "index",
          "type": "uint256"
        }
      ],
      "name": "getAttachmentVersionByIndex",
      "outputs": [
        {
          "name": "",
          "type": "string"
        }
      ],
      "payable": false,
      "stateMutability": "view",
      "type": "function"
    },
    {
      "constant": true,
      "inputs": [
        {
          "name": "fileName",
          "type": "string"
        }
      ],
      "name": "getUploadedBy",
      "outputs": [
        {
          "name": "",
          "type": "address"
        }
      ],
      "payable": false,
      "stateMutability": "view",
      "type": "function"
    },
    {
      "constant": false,
      "inputs": [
        {
          "name": "party",
          "type": "string"
        },
        {
          "name": "description",
          "type": "string"
        },
        {
          "name": "ipfsHash",
          "type": "string"
        }
      ],
      "name": "addEventLog",
      "outputs": [],
      "payable": false,
      "stateMutability": "nonpayable",
      "type": "function"
    },
    {
      "constant": true,
      "inputs": [],
      "name": "getEventLogsNumber",
      "outputs": [
        {
          "name": "",
          "type": "uint256"
        }
      ],
      "payable": false,
      "stateMutability": "view",
      "type": "function"
    }
  ],
  "bytecode": "0x606060405234156200001057600080fd5b60405162002da338038062002da383398101604052808051820191906020018051906020019091908051820191906020018051820191905050336000806101000a81548173ffffffffffffffffffffffffffffffffffffffff021916908373ffffffffffffffffffffffffffffffffffffffff1602179055508360019080519060200190620000a1929190620000e5565b50826002819055508160049080519060200190620000c1929190620000e5565b508060069080519060200190620000da929190620000e5565b505050505062000194565b828054600181600116156101000203166002900490600052602060002090601f016020900481019282601f106200012857805160ff191683800117855562000159565b8280016001018555821562000159579182015b82811115620001585782518255916020019190600101906200013b565b5b5090506200016891906200016c565b5090565b6200019191905b808211156200018d57600081600090555060010162000173565b5090565b90565b612bff80620001a46000396000f30060606040526004361061018b576000357c0100000000000000000000000000000000000000000000000000000000900463ffffffff16806306c28ed7146101905780630b4fc64c1461021e57806316b664d0146102bb5780631869b904146103d85780631bc52d9b146105aa5780631f49d9c9146105d35780632f8d0417146106b6578063378aa701146106df57806337c8dacc146107165780633b452b8e146107a4578063402ee26d14610832578063486bce52146108585780634b0a3e7b146108c957806351b01d86146109a857806368aaa4be14610ac25780637284e41614610aff578063754fdefb14610b8d57806388e687ea14610bca5780638f20373a14610c1f5780639653b33214610c485780639b0b688614610d65578063bb00b80914610e3b578063bd94a9a014610e78578063c8c7a22d14610f95578063c8dbb0f514610fd2578063cfc4f82014610ffb578063d386c22614611097578063d6ed2f061461116d578063e557138514611196578063ed7c238d146112b3578063f1b6dccd1461134f575b600080fd5b341561019b57600080fd5b6101a3611386565b6040518080602001828103825283818151815260200191508051906020019080838360005b838110156101e35780820151818401526020810190506101c8565b50505050905090810190601f1680156102105780820380516001836020036101000a031916815260200191505b509250505060405180910390f35b341561022957600080fd5b610279600480803590602001908201803590602001908080601f016020809104026020016040519081016040528093929190818152602001838380828437820191505050505050919050506113c9565b604051808273ffffffffffffffffffffffffffffffffffffffff1673ffffffffffffffffffffffffffffffffffffffff16815260200191505060405180910390f35b34156102c657600080fd5b6103d6600480803573ffffffffffffffffffffffffffffffffffffffff1690602001909190803590602001908201803590602001908080601f0160208091040260200160405190810160405280939291908181526020018383808284378201915050505050509190803590602001909190803590602001908201803590602001908080601f0160208091040260200160405190810160405280939291908181526020018383808284378201915050505050509190803590602001908201803590602001908080601f01602080910402602001604051908101604052809392919081815260200183838082843782019150505050505091908035906020019091908035906020019091905050611466565b005b34156103e357600080fd5b6103f96004808035906020019091905050611583565b604051808581526020018060200180602001806020018481038452878181546001816001161561010002031660029004815260200191508054600181600116156101000203166002900480156104905780601f1061046557610100808354040283529160200191610490565b820191906000526020600020905b81548152906001019060200180831161047357829003601f168201915b50508481038352868181546001816001161561010002031660029004815260200191508054600181600116156101000203166002900480156105135780601f106104e857610100808354040283529160200191610513565b820191906000526020600020905b8154815290600101906020018083116104f657829003601f168201915b50508481038252858181546001816001161561010002031660029004815260200191508054600181600116156101000203166002900480156105965780601f1061056b57610100808354040283529160200191610596565b820191906000526020600020905b81548152906001019060200180831161057957829003601f168201915b505097505050505050505060405180910390f35b34156105b557600080fd5b6105bd6115bf565b6040518082815260200191505060405180910390f35b34156105de57600080fd5b6106b4600480803590602001908201803590602001908080601f0160208091040260200160405190810160405280939291908181526020018383808284378201915050505050509190803590602001908201803590602001908080601f0160208091040260200160405190810160405280939291908181526020018383808284378201915050505050509190803590602001908201803590602001908080601f016020809104026020016040519081016040528093929190818152602001838380828437820191505050505050919050506115c5565b005b34156106c157600080fd5b6106c96116d0565b6040518082815260200191505060405180910390f35b34156106ea57600080fd5b6106f26116d6565b6040518082600881111561070257fe5b60ff16815260200191505060405180910390f35b341561072157600080fd5b6107296116ed565b6040518080602001828103825283818151815260200191508051906020019080838360005b8381101561076957808201518184015260208101905061074e565b50505050905090810190601f1680156107965780820380516001836020036101000a031916815260200191505b509250505060405180910390f35b34156107af57600080fd5b6107b761178b565b6040518080602001828103825283818151815260200191508051906020019080838360005b838110156107f75780820151818401526020810190506107dc565b50505050905090810190601f1680156108245780820380516001836020036101000a031916815260200191505b509250505060405180910390f35b341561083d57600080fd5b610856600480803560ff16906020019091905050611829565b005b341561086357600080fd5b6108b3600480803590602001908201803590602001908080601f01602080910402602001604051908101604052809392919081815260200183838082843782019150505050505091905050611894565b6040518082815260200191505060405180910390f35b34156108d457600080fd5b61092d600480803590602001908201803590602001908080601f01602080910402602001604051908101604052809392919081815260200183838082843782019150505050505091908035906020019091905050611961565b6040518080602001828103825283818151815260200191508051906020019080838360005b8381101561096d578082015181840152602081019050610952565b50505050905090810190601f16801561099a5780820380516001836020036101000a031916815260200191505b509250505060405180910390f35b34156109b357600080fd5b610aa8600480803590602001908201803590602001908080601f0160208091040260200160405190810160405280939291908181526020018383808284378201915050505050509190803590602001908201803590602001908080601f0160208091040260200160405190810160405280939291908181526020018383808284378201915050505050509190803573ffffffffffffffffffffffffffffffffffffffff1690602001909190803590602001908201803590602001908080601f01602080910402602001604051908101604052809392919081815260200183838082843782019150505050505091905050611b1c565b604051808215151515815260200191505060405180910390f35b3415610acd57600080fd5b610ae560048080351515906020019091905050611e05565b604051808215151515815260200191505060405180910390f35b3415610b0a57600080fd5b610b12611edc565b6040518080602001828103825283818151815260200191508051906020019080838360005b83811015610b52578082015181840152602081019050610b37565b50505050905090810190601f168015610b7f5780820380516001836020036101000a031916815260200191505b509250505060405180910390f35b3415610b9857600080fd5b610bb060048080351515906020019091905050611f7a565b604051808215151515815260200191505060405180910390f35b3415610bd557600080fd5b610bdd612051565b604051808273ffffffffffffffffffffffffffffffffffffffff1673ffffffffffffffffffffffffffffffffffffffff16815260200191505060405180910390f35b3415610c2a57600080fd5b610c32612076565b6040518082815260200191505060405180910390f35b3415610c5357600080fd5b610d63600480803573ffffffffffffffffffffffffffffffffffffffff1690602001909190803590602001908201803590602001908080601f0160208091040260200160405190810160405280939291908181526020018383808284378201915050505050509190803590602001909190803590602001908201803590602001908080601f0160208091040260200160405190810160405280939291908181526020018383808284378201915050505050509190803590602001908201803590602001908080601f01602080910402602001604051908101604052809392919081815260200183838082843782019150505050505091908035906020019091908035906020019091905050612083565b005b3415610d7057600080fd5b610dc0600480803590602001908201803590602001908080601f01602080910402602001604051908101604052809392919081815260200183838082843782019150505050505091905050612164565b6040518080602001828103825283818151815260200191508051906020019080838360005b83811015610e00578082015181840152602081019050610de5565b50505050905090810190601f168015610e2d5780820380516001836020036101000a031916815260200191505b509250505060405180910390f35b3415610e4657600080fd5b610e5e600480803515159060200190919050506122fe565b604051808215151515815260200191505060405180910390f35b3415610e8357600080fd5b610f93600480803573ffffffffffffffffffffffffffffffffffffffff1690602001909190803590602001908201803590602001908080601f0160208091040260200160405190810160405280939291908181526020018383808284378201915050505050509190803590602001909190803590602001908201803590602001908080601f0160208091040260200160405190810160405280939291908181526020018383808284378201915050505050509190803590602001908201803590602001908080601f016020809104026020016040519081016040528093929190818152602001838380828437820191505050505050919080359060200190919080359060200190919050506123d5565b005b3415610fa057600080fd5b610fb8600480803515159060200190919050506124b6565b604051808215151515815260200191505060405180910390f35b3415610fdd57600080fd5b610fe561258d565b6040518082815260200191505060405180910390f35b341561100657600080fd5b61101c600480803590602001909190505061259a565b6040518080602001828103825283818151815260200191508051906020019080838360005b8381101561105c578082015181840152602081019050611041565b50505050905090810190601f1680156110895780820380516001836020036101000a031916815260200191505b509250505060405180910390f35b34156110a257600080fd5b6110f2600480803590602001908201803590602001908080601f01602080910402602001604051908101604052809392919081815260200183838082843782019150505050505091905050612656565b6040518080602001828103825283818151815260200191508051906020019080838360005b83811015611132578082015181840152602081019050611117565b50505050905090810190601f16801561115f5780820380516001836020036101000a031916815260200191505b509250505060405180910390f35b341561117857600080fd5b611180612772565b6040518082815260200191505060405180910390f35b34156111a157600080fd5b6112b1600480803573ffffffffffffffffffffffffffffffffffffffff1690602001909190803590602001908201803590602001908080601f0160208091040260200160405190810160405280939291908181526020018383808284378201915050505050509190803590602001909190803590602001908201803590602001908080601f0160208091040260200160405190810160405280939291908181526020018383808284378201915050505050509190803590602001908201803590602001908080601f01602080910402602001604051908101604052809392919081815260200183838082843782019150505050505091908035906020019091908035906020019091905050612778565b005b34156112be57600080fd5b6112d46004808035906020019091905050612825565b6040518080602001828103825283818151815260200191508051906020019080838360005b838110156113145780820151818401526020810190506112f9565b50505050905090810190601f1680156113415780820380516001836020036101000a031916815260200191505b509250505060405180910390f35b341561135a57600080fd5b6113626128e7565b6040518082600881111561137257fe5b60ff16815260200191505060405180910390f35b61138e6128fa565b6040805190810160405280600281526020017f5b5d000000000000000000000000000000000000000000000000000000000000815250905090565b6000806008836040518082805190602001908083835b60208310151561140457805182526020820191506020810190506020830392506113df565b6001836020036101000a038019825116818451168082178552505050505050905001915050908152602001604051809103902090508060030160009054906101000a900473ffffffffffffffffffffffffffffffffffffffff16915050919050565b6006600881111561147357fe5b600a60009054906101000a900460ff16600881111561148e57fe5b14151561149a57600080fd5b336000806101000a81548173ffffffffffffffffffffffffffffffffffffffff021916908373ffffffffffffffffffffffffffffffffffffffff16021790555085600190805190602001906114f092919061290e565b5084600281905550836004908051906020019061150e92919061290e565b50826006908051906020019061152592919061290e565b5081600581905550806003819055507f551dc40198cc79684bb69e4931dba4ac16e4598792ee1c0a5000aeea366d7bb660076040518082600881111561156757fe5b60ff16815260200191505060405180910390a150505050505050565b60098181548110151561159257fe5b90600052602060002090600402016000915090508060000154908060010190806002019080600301905084565b60025481565b6000428160000181905550838160010190805190602001906115e892919061290e565b508281600201908051906020019061160192919061290e565b508181600301908051906020019061161a92919061290e565b506009805480600101828161162f919061298e565b9160005260206000209060040201600083909190915060008201548160000155600182018160010190805460018160011615610100020316600290046116769291906129c0565b506002820181600201908054600181600116156101000203166002900461169e9291906129c0565b50600382018160030190805460018160011615610100020316600290046116c69291906129c0565b5050505050505050565b60035481565b6000600a60009054906101000a900460ff16905090565b60018054600181600116156101000203166002900480601f0160208091040260200160405190810160405280929190818152602001828054600181600116156101000203166002900480156117835780601f1061175857610100808354040283529160200191611783565b820191906000526020600020905b81548152906001019060200180831161176657829003601f168201915b505050505081565b60068054600181600116156101000203166002900480601f0160208091040260200160405190810160405280929190818152602001828054600181600116156101000203166002900480156118215780601f106117f657610100808354040283529160200191611821565b820191906000526020600020905b81548152906001019060200180831161180457829003601f168201915b505050505081565b80600a60006101000a81548160ff0219169083600881111561184757fe5b02179055507f551dc40198cc79684bb69e4931dba4ac16e4598792ee1c0a5000aeea366d7bb6816040518082600881111561187e57fe5b60ff16815260200191505060405180910390a150565b6000806008836040518082805190602001908083835b6020831015156118cf57805182526020820191506020810190506020830392506118aa565b6001836020036101000a0380198251168184511680821785525050505050509050019150509081526020016040518091039020905060008160030160009054906101000a900473ffffffffffffffffffffffffffffffffffffffff1673ffffffffffffffffffffffffffffffffffffffff161415611950576000915061195b565b806000018054905091505b50919050565b6119696128fa565b60006008846040518082805190602001908083835b6020831015156119a3578051825260208201915060208101905060208303925061197e565b6001836020036101000a0380198251168184511680821785525050505050509050019150509081526020016040518091039020905060008160030160009054906101000a900473ffffffffffffffffffffffffffffffffffffffff1673ffffffffffffffffffffffffffffffffffffffff161415611a335760206040519081016040528060008152509150611b15565b6001830181600001805490501015611a5d5760206040519081016040528060008152509150611b15565b8060000183815481101515611a6e57fe5b90600052602060002090018054600181600116156101000203166002900480601f016020809104026020016040519081016040528092919081815260200182805460018160011615610100020316600290048015611b0d5780601f10611ae257610100808354040283529160200191611b0d565b820191906000526020600020905b815481529060010190602001808311611af057829003601f168201915b505050505091505b5092915050565b6000806008866040518082805190602001908083835b602083101515611b575780518252602082019150602081019050602083039250611b32565b6001836020036101000a0380198251168184511680821785525050505050509050019150509081526020016040518091039020905060008160030160009054906101000a900473ffffffffffffffffffffffffffffffffffffffff1673ffffffffffffffffffffffffffffffffffffffff161415611c0c5760078054806001018281611be39190612a47565b916000526020600020900160008890919091509080519060200190611c0992919061290e565b50505b806000018054806001018281611c229190612a47565b916000526020600020900160008590919091509080519060200190611c4892919061290e565b505084816002019080519060200190611c6292919061290e565b50838160030160006101000a81548173ffffffffffffffffffffffffffffffffffffffff021916908373ffffffffffffffffffffffffffffffffffffffff16021790555085816001019080519060200190611cbe92919061290e565b50806008876040518082805190602001908083835b602083101515611cf85780518252602082019150602081019050602083039250611cd3565b6001836020036101000a03801982511681845116808217855250505050505090500191505090815260200160405180910390206000820181600001908054611d41929190612a73565b5060018201816001019080546001816001161561010002031660029004611d699291906129c0565b5060028201816002019080546001816001161561010002031660029004611d919291906129c0565b506003820160009054906101000a900473ffffffffffffffffffffffffffffffffffffffff168160030160006101000a81548173ffffffffffffffffffffffffffffffffffffffff021916908373ffffffffffffffffffffffffffffffffffffffff16021790555090505050949350505050565b600060056008811115611e1457fe5b600a60009054906101000a900460ff166008811115611e2f57fe5b141515611e3b57600080fd5b8115611e8c577f551dc40198cc79684bb69e4931dba4ac16e4598792ee1c0a5000aeea366d7bb6600660405180826008811115611e7457fe5b60ff16815260200191505060405180910390a1611ed3565b7f551dc40198cc79684bb69e4931dba4ac16e4598792ee1c0a5000aeea366d7bb6600560405180826008811115611ebf57fe5b60ff16815260200191505060405180910390a15b60019050919050565b60048054600181600116156101000203166002900480601f016020809104026020016040519081016040528092919081815260200182805460018160011615610100020316600290048015611f725780601f10611f4757610100808354040283529160200191611f72565b820191906000526020600020905b815481529060010190602001808311611f5557829003601f168201915b505050505081565b600060036008811115611f8957fe5b600a60009054906101000a900460ff166008811115611fa457fe5b141515611fb057600080fd5b8115612001577f551dc40198cc79684bb69e4931dba4ac16e4598792ee1c0a5000aeea366d7bb6600460405180826008811115611fe957fe5b60ff16815260200191505060405180910390a1612048565b7f551dc40198cc79684bb69e4931dba4ac16e4598792ee1c0a5000aeea366d7bb660036040518082600881111561203457fe5b60ff16815260200191505060405180910390a15b60019050919050565b6000809054906101000a900473ffffffffffffffffffffffffffffffffffffffff1681565b6000600780549050905090565b6002600881111561209057fe5b600a60009054906101000a900460ff1660088111156120ab57fe5b1415156120b757600080fd5b336000806101000a81548173ffffffffffffffffffffffffffffffffffffffff021916908373ffffffffffffffffffffffffffffffffffffffff160217905550856001908051906020019061210d92919061290e565b5084600281905550836004908051906020019061212b92919061290e565b50826006908051906020019061214292919061290e565b50816005819055508060038190555061215b6003611829565b50505050505050565b61216c6128fa565b60006008836040518082805190602001908083835b6020831015156121a65780518252602082019150602081019050602083039250612181565b6001836020036101000a0380198251168184511680821785525050505050509050019150509081526020016040518091039020905060008160030160009054906101000a900473ffffffffffffffffffffffffffffffffffffffff1673ffffffffffffffffffffffffffffffffffffffff16141561223657602060405190810160405280600081525091506122f8565b80600001600182600001805490500381548110151561225157fe5b90600052602060002090018054600181600116156101000203166002900480601f0160208091040260200160405190810160405280929190818152602001828054600181600116156101000203166002900480156122f05780601f106122c5576101008083540402835291602001916122f0565b820191906000526020600020905b8154815290600101906020018083116122d357829003601f168201915b505050505091505b50919050565b60006001600881111561230d57fe5b600a60009054906101000a900460ff16600881111561232857fe5b14151561233457600080fd5b8115612385577f551dc40198cc79684bb69e4931dba4ac16e4598792ee1c0a5000aeea366d7bb660026040518082600881111561236d57fe5b60ff16815260200191505060405180910390a16123cc565b7f551dc40198cc79684bb69e4931dba4ac16e4598792ee1c0a5000aeea366d7bb66001604051808260088111156123b857fe5b60ff16815260200191505060405180910390a15b60019050919050565b600460088111156123e257fe5b600a60009054906101000a900460ff1660088111156123fd57fe5b14151561240957600080fd5b336000806101000a81548173ffffffffffffffffffffffffffffffffffffffff021916908373ffffffffffffffffffffffffffffffffffffffff160217905550856001908051906020019061245f92919061290e565b5084600281905550836004908051906020019061247d92919061290e565b50826006908051906020019061249492919061290e565b5081600581905550806003819055506124ad6005611829565b50505050505050565b6000600760088111156124c557fe5b600a60009054906101000a900460ff1660088111156124e057fe5b1415156124ec57600080fd5b811561253d577f551dc40198cc79684bb69e4931dba4ac16e4598792ee1c0a5000aeea366d7bb660086040518082600881111561252557fe5b60ff16815260200191505060405180910390a1612584565b7f551dc40198cc79684bb69e4931dba4ac16e4598792ee1c0a5000aeea366d7bb660076040518082600881111561257057fe5b60ff16815260200191505060405180910390a15b60019050919050565b6000600980549050905090565b6007818154811015156125a957fe5b90600052602060002090016000915090508054600181600116156101000203166002900480601f01602080910402602001604051908101604052809291908181526020018280546001816001161561010002031660029004801561264e5780601f106126235761010080835404028352916020019161264e565b820191906000526020600020905b81548152906001019060200180831161263157829003601f168201915b505050505081565b61265e6128fa565b60006008836040518082805190602001908083835b6020831015156126985780518252602082019150602081019050602083039250612673565b6001836020036101000a03801982511681845116808217855250505050505090500191505090815260200160405180910390209050806002018054600181600116156101000203166002900480601f0160208091040260200160405190810160405280929190818152602001828054600181600116156101000203166002900480156127655780601f1061273a57610100808354040283529160200191612765565b820191906000526020600020905b81548152906001019060200180831161274857829003601f168201915b5050505050915050919050565b60055481565b336000806101000a81548173ffffffffffffffffffffffffffffffffffffffff021916908373ffffffffffffffffffffffffffffffffffffffff16021790555085600190805190602001906127ce92919061290e565b508460028190555083600490805190602001906127ec92919061290e565b50826006908051906020019061280392919061290e565b50816005819055508060038190555061281c6001611829565b50505050505050565b61282d6128fa565b60078281548110151561283c57fe5b90600052602060002090018054600181600116156101000203166002900480601f0160208091040260200160405190810160405280929190818152602001828054600181600116156101000203166002900480156128db5780601f106128b0576101008083540402835291602001916128db565b820191906000526020600020905b8154815290600101906020018083116128be57829003601f168201915b50505050509050919050565b600a60009054906101000a900460ff1681565b602060405190810160405280600081525090565b828054600181600116156101000203166002900490600052602060002090601f016020900481019282601f1061294f57805160ff191683800117855561297d565b8280016001018555821561297d579182015b8281111561297c578251825591602001919060010190612961565b5b50905061298a9190612ae3565b5090565b8154818355818115116129bb576004028160040283600052602060002091820191016129ba9190612b08565b5b505050565b828054600181600116156101000203166002900490600052602060002090601f016020900481019282601f106129f95780548555612a36565b82800160010185558215612a3657600052602060002091601f016020900482015b82811115612a35578254825591600101919060010190612a1a565b5b509050612a439190612ae3565b5090565b815481835581811511612a6e57818360005260206000209182019101612a6d9190612b5f565b5b505050565b828054828255906000526020600020908101928215612ad25760005260206000209182015b82811115612ad15782829080546001816001161561010002031660029004612ac19291906129c0565b5091600101919060010190612a98565b5b509050612adf9190612b5f565b5090565b612b0591905b80821115612b01576000816000905550600101612ae9565b5090565b90565b612b5c91905b80821115612b5857600080820160009055600182016000612b2f9190612b8b565b600282016000612b3f9190612b8b565b600382016000612b4f9190612b8b565b50600401612b0e565b5090565b90565b612b8891905b80821115612b845760008181612b7b9190612b8b565b50600101612b65565b5090565b90565b50805460018160011615610100020316600290046000825580601f10612bb15750612bd0565b601f016020900490600052602060002090810190612bcf9190612ae3565b5b505600a165627a7a72305820c16a34fc49d10705d0c52cc8ab5e19222dd858ac93579c86f7298f8f3cfa17a90029",
  "source": "pragma solidity ^0.4.17;\r\n\r\ncontract DADetails {\r\n\r\n    //STRUCTS\r\n    struct FileAttachment {\r\n        string[] ipfsHash;\r\n        string fileName;\r\n        string fileType;\r\n        address uploadedBy;\r\n    }\r\n\r\n    struct EventLog {\r\n        uint date;\r\n        string party;\r\n        string description;\r\n        string ipfsHash;\r\n    }\r\n\r\n    // EVENTS\r\n    event StateChanged(ContractStates newState);\r\n    // ... all the state changes ...\r\n\r\n\r\n    // FIELDS\r\n    address public applicant;\r\n    string public daid;\r\n    uint public dateLodged;\r\n    uint public dateApproved;\r\n    //...\r\n    // parcels {LotId, SectionId, PlanId, PlanType};\r\n    string public description;\r\n    uint public estimatedCost;\r\n    string public lga;\r\n    // status: DALodged, DApproval\r\n    string[] public fileNames; \r\n    mapping (string => FileAttachment) attachments;\r\n    EventLog[] public eventLogs;\r\n\r\n    // contract states\r\n    enum ContractStates {stateInitialized, DALodged, DaApproved, CCLodged, CCApproved, SCLodged, SCApproved, PlanLodged, PlanRegistered }\r\n    ContractStates public State;\r\n\r\n\r\n    // statechangedevents[]\r\n\r\n\r\n    // CONSTRUCTOR\r\n    function DADetails (string _daId, uint _dateLodged, string _description, string _lga) public {\r\n        applicant = msg.sender;\r\n        daid = _daId;\r\n        dateLodged = _dateLodged;\r\n        description = _description;\r\n        lga = _lga;\r\n    }\r\n\r\n    // METHODS\r\n    \r\n    // function change the state\r\n\tfunction ChangeState(ContractStates newState) public {\r\n\t\tState = newState;\r\n\t\tStateChanged(newState);\r\n\t}\r\n\r\n   // function returns the current state \r\n    function getCurrentState() public view returns (ContractStates) {\r\n       return State;\r\n    }\r\n\r\n\r\n    // function changes the state to DA lodged \r\n    function DALodge (address _applicant, string _daid, uint _dateLodged, string _description, string _lga, uint _estimatedcost, uint _dateApproved) public {\r\n        applicant = msg.sender;\r\n        daid = _daid;\r\n        dateLodged = _dateLodged;\r\n        description = _description;\r\n        lga = _lga;\r\n        estimatedCost = _estimatedcost;\r\n        dateApproved = _dateApproved;\r\n        ChangeState(ContractStates.DALodged);\r\n    }\r\n\r\n\r\n    // function changes the state to DA Approved if current contract state is DA Lodged\r\n    function DAApprove(bool DAApproveResult) public returns (bool) {\r\n\t\trequire(State == ContractStates.DALodged);\r\n\t\t\r\n\t\tif(DAApproveResult) {\r\n\t\t\tStateChanged(ContractStates.DaApproved);\r\n\t\t} else {\r\n\t\t\tStateChanged(ContractStates.DALodged);\r\n\t\t}\r\n\treturn true;\r\n\t}\r\n\r\n    // function changes the state to construction (CC) lodged if current contract state is DAApproved approved\r\n    function CCLodge (address _applicant, string _daid, uint _dateLodged, string _description, string _lga, uint _estimatedcost, uint _dateApproved) public {      \r\n        require(State == ContractStates.DaApproved);\r\n       \r\n        applicant = msg.sender;\r\n        daid = _daid;\r\n        dateLodged = _dateLodged;\r\n        description = _description;\r\n        lga = _lga;\r\n        estimatedCost = _estimatedcost;\r\n        dateApproved = _dateApproved;\r\n        ChangeState(ContractStates.CCLodged);\r\n    }\r\n\r\n\r\n    // function changes the state to construction (CC) approved if current contract state is construction (CC) lodged\r\n    function CCApprove(bool CCApproveResult) public returns (bool) {\r\n\t\trequire(State == ContractStates.CCLodged);\r\n\t\t\r\n\t\tif(CCApproveResult) {\r\n\t\t\tStateChanged(ContractStates.CCApproved);\r\n\t\t} else {\r\n\t\t\tStateChanged(ContractStates.CCLodged);\r\n\t\t}\r\n\treturn true;\r\n\t}\r\n\r\n\r\n    // function changes the state to sub division (SC) lodged if current contract state is construction (CC) approved\r\n     function SCLodge (address _applicant, string _daid, uint _dateLodged, string _description, string _lga, uint _estimatedcost, uint _dateApproved) public {\r\n        require(State == ContractStates.CCApproved);\r\n        applicant = msg.sender;\r\n        daid = _daid;\r\n        dateLodged = _dateLodged;\r\n        description = _description;\r\n        lga = _lga;\r\n        estimatedCost = _estimatedcost;\r\n        dateApproved = _dateApproved;\r\n        ChangeState(ContractStates.SCLodged);\r\n    }\r\n\r\n   // function changes the state to sub division (SC) approved if current contract state is sub division (SC) lodged\r\n    function SCApprove(bool SCApproveResult) public returns (bool) {\r\n\t\trequire(State == ContractStates.SCLodged);\r\n\t\t\r\n\t\tif(SCApproveResult) {\r\n\t\t\tStateChanged(ContractStates.SCApproved);\r\n\t\t} else {\r\n\t\t\tStateChanged(ContractStates.SCLodged);\r\n\t\t}\r\n\treturn true;\r\n\t}\r\n\r\n\r\n    // function changes the state to Plan lodged if current contract state is sub divison approved\r\n     function PlanApprove (address _applicant, string _daid, uint _dateLodged, string _description, string _lga, uint _estimatedcost, uint _dateApproved) public {\r\n        require(State == ContractStates.SCApproved);\r\n\r\n        applicant = msg.sender;\r\n        daid = _daid;\r\n        dateLodged = _dateLodged;\r\n        description = _description;\r\n        lga = _lga;\r\n        estimatedCost = _estimatedcost;\r\n        dateApproved = _dateApproved;\r\n        StateChanged(ContractStates.PlanLodged);\r\n    }\r\n\r\n    // function changes the state to PlanRegistered if current contract state is Plan Lodged\r\n     function PlanRegister(bool PlanRegisteredResult) public returns (bool) {\r\n\t\trequire(State == ContractStates.PlanLodged);\r\n\t\t\r\n\t\tif (PlanRegisteredResult) {\r\n\t\t\tStateChanged(ContractStates.PlanRegistered);\r\n\t\t} else {\r\n\t\t\tStateChanged(ContractStates.PlanLodged);\r\n\t\t}\r\n\treturn true;\r\n\t}\r\n\r\n\r\n    // get the hash of all the geographic files associated with this contract\r\n    function getGeoFiles() public view returns(string) {\r\n        return \"[]\";\r\n    }\r\n\r\n    function addAttachment(string fileName, string fileType, address uploadedBy, string ipfsHash) public returns(bool) {\r\n        // look for the file name in the contract already\r\n        var attachment = attachments[fileName];\r\n        // if it's there, simply add the ipfs hash to the array of hashes, update the filetype and uploadedby\r\n        // if it's not, we get a blank one back, so this will fill it in.\r\n        if (attachment.uploadedBy == 0x00) {\r\n            fileNames.push(fileName);\r\n        }\r\n        attachment.ipfsHash.push(ipfsHash);\r\n        attachment.fileType = fileType;\r\n        attachment.uploadedBy = uploadedBy;\r\n        attachment.fileName = fileName;\r\n        attachments[fileName] = attachment;\r\n    }\r\n\r\n    function getFileNamesCount() public view returns(uint256) {\r\n        return fileNames.length;\r\n    }\r\n\r\n    function getFileName(uint256 index) public view returns(string) {\r\n        return fileNames[index];\r\n    }\r\n\r\n    function getFileType(string fileName) public view returns(string) {\r\n        var attachment = attachments[fileName];\r\n        return attachment.fileType;\r\n    } \r\n\r\n    function getLatestIpfsHash(string fileName) public view returns(string) {\r\n        var attachment = attachments[fileName];\r\n        if (attachment.uploadedBy == 0x00) {\r\n            return \"\";\r\n        } else {\r\n            return attachment.ipfsHash[attachment.ipfsHash.length - 1];\r\n        }\r\n    }\r\n\r\n    function getAttachmentVersionCount(string fileName) public view returns(uint256) {\r\n        var attachment = attachments[fileName];\r\n        if (attachment.uploadedBy == 0x00) {\r\n            return 0;\r\n        } else {\r\n            return attachment.ipfsHash.length;\r\n        }\r\n    }\r\n\r\n    function getAttachmentVersionByIndex(string fileName, uint256 index) public view returns(string) {\r\n        var attachment = attachments[fileName];\r\n        if (attachment.uploadedBy == 0x00) {\r\n            return \"\";\r\n        } else if (attachment.ipfsHash.length < index + 1) {\r\n            return \"\";\r\n        } else {\r\n            return attachment.ipfsHash[index];\r\n        }\r\n    }\r\n\r\n    function getUploadedBy(string fileName) public view returns(address) {\r\n        var attachment = attachments[fileName];\r\n        return attachment.uploadedBy;\r\n    }\r\n\r\n    function addEventLog(string party, string description, string ipfsHash) public {\r\n        EventLog eventLog;\r\n        eventLog.date = now;\r\n        eventLog.party = party;\r\n        eventLog.description = description;\r\n        eventLog.ipfsHash = ipfsHash;\r\n        eventLogs.push(eventLog);\r\n    }\r\n\r\n    function getEventLogsNumber() public view returns (uint256) {\r\n        return eventLogs.length;\r\n    }\r\n}",
  "sourcePath": "/mnt/c/02Ujjwal_Code/1DFSI_Australia_Sydney/3uk/Blockchain-For-Land-Development-Approvals/truffle/contracts/DADetails.sol",
  "compiler": {
    "name": "solc",
    "version": "0.4.19+commit.c4cbbb05.Emscripten.clang"
  },
  "schemaVersion": "1.0.1",
  "updatedAt": "2018-02-28T02:28:27.715Z"
}