{
  "contractName": "DADetails",
  "abi": [
    {
      "constant": true,
      "inputs": [
        {
          "name": "",
          "type": "uint256"
        }
      ],
      "name": "eventLogs",
      "outputs": [
        {
          "name": "date",
          "type": "uint256"
        },
        {
          "name": "party",
          "type": "string"
        },
        {
          "name": "description",
          "type": "string"
        },
        {
          "name": "ipfsHash",
          "type": "string"
        }
      ],
      "payable": false,
      "stateMutability": "view",
      "type": "function"
    },
    {
      "constant": true,
      "inputs": [],
      "name": "dateLodged",
      "outputs": [
        {
          "name": "",
          "type": "uint256"
        }
      ],
      "payable": false,
      "stateMutability": "view",
      "type": "function"
    },
    {
      "constant": true,
      "inputs": [],
      "name": "daid",
      "outputs": [
        {
          "name": "",
          "type": "string"
        }
      ],
      "payable": false,
      "stateMutability": "view",
      "type": "function"
    },
    {
      "constant": true,
      "inputs": [],
      "name": "lga",
      "outputs": [
        {
          "name": "",
          "type": "string"
        }
      ],
      "payable": false,
      "stateMutability": "view",
      "type": "function"
    },
    {
      "constant": true,
      "inputs": [],
      "name": "description",
      "outputs": [
        {
          "name": "",
          "type": "string"
        }
      ],
      "payable": false,
      "stateMutability": "view",
      "type": "function"
    },
    {
      "constant": true,
      "inputs": [],
      "name": "applicant",
      "outputs": [
        {
          "name": "",
          "type": "address"
        }
      ],
      "payable": false,
      "stateMutability": "view",
      "type": "function"
    },
    {
      "constant": true,
      "inputs": [
        {
          "name": "",
          "type": "uint256"
        }
      ],
      "name": "fileNames",
      "outputs": [
        {
          "name": "",
          "type": "string"
        }
      ],
      "payable": false,
      "stateMutability": "view",
      "type": "function"
    },
    {
      "constant": true,
      "inputs": [],
      "name": "estimatedCost",
      "outputs": [
        {
          "name": "",
          "type": "uint256"
        }
      ],
      "payable": false,
      "stateMutability": "view",
      "type": "function"
    },
    {
      "inputs": [
        {
          "name": "_dateLodged",
          "type": "uint256"
        },
        {
          "name": "_description",
          "type": "string"
        },
        {
          "name": "_lga",
          "type": "string"
        }
      ],
      "payable": false,
      "stateMutability": "nonpayable",
      "type": "constructor"
    },
    {
      "anonymous": false,
      "inputs": [],
      "name": "StateChanged",
      "type": "event"
    },
    {
      "constant": true,
      "inputs": [],
      "name": "getGeoFiles",
      "outputs": [
        {
          "name": "",
          "type": "string"
        }
      ],
      "payable": false,
      "stateMutability": "view",
      "type": "function"
    },
    {
      "constant": false,
      "inputs": [
        {
          "name": "fileName",
          "type": "string"
        },
        {
          "name": "fileType",
          "type": "string"
        },
        {
          "name": "uploadedBy",
          "type": "address"
        },
        {
          "name": "ipfsHash",
          "type": "string"
        }
      ],
      "name": "addAttachment",
      "outputs": [
        {
          "name": "",
          "type": "bool"
        }
      ],
      "payable": false,
      "stateMutability": "nonpayable",
      "type": "function"
    },
    {
      "constant": true,
      "inputs": [],
      "name": "getFileNamesCount",
      "outputs": [
        {
          "name": "",
          "type": "uint256"
        }
      ],
      "payable": false,
      "stateMutability": "view",
      "type": "function"
    },
    {
      "constant": true,
      "inputs": [
        {
          "name": "index",
          "type": "uint256"
        }
      ],
      "name": "getFileName",
      "outputs": [
        {
          "name": "",
          "type": "string"
        }
      ],
      "payable": false,
      "stateMutability": "view",
      "type": "function"
    },
    {
      "constant": true,
      "inputs": [
        {
          "name": "fileName",
          "type": "string"
        }
      ],
      "name": "getFileType",
      "outputs": [
        {
          "name": "",
          "type": "string"
        }
      ],
      "payable": false,
      "stateMutability": "view",
      "type": "function"
    },
    {
      "constant": true,
      "inputs": [
        {
          "name": "fileName",
          "type": "string"
        }
      ],
      "name": "getLatestIpfsHash",
      "outputs": [
        {
          "name": "",
          "type": "string"
        }
      ],
      "payable": false,
      "stateMutability": "view",
      "type": "function"
    },
    {
      "constant": true,
      "inputs": [
        {
          "name": "fileName",
          "type": "string"
        }
      ],
      "name": "getAttachmentVersionCount",
      "outputs": [
        {
          "name": "",
          "type": "uint256"
        }
      ],
      "payable": false,
      "stateMutability": "view",
      "type": "function"
    },
    {
      "constant": true,
      "inputs": [
        {
          "name": "fileName",
          "type": "string"
        },
        {
          "name": "index",
          "type": "uint256"
        }
      ],
      "name": "getAttachmentVersionByIndex",
      "outputs": [
        {
          "name": "",
          "type": "string"
        }
      ],
      "payable": false,
      "stateMutability": "view",
      "type": "function"
    },
    {
      "constant": true,
      "inputs": [
        {
          "name": "fileName",
          "type": "string"
        }
      ],
      "name": "getUploadedBy",
      "outputs": [
        {
          "name": "",
          "type": "address"
        }
      ],
      "payable": false,
      "stateMutability": "view",
      "type": "function"
    },
    {
      "constant": false,
      "inputs": [
        {
          "name": "party",
          "type": "string"
        },
        {
          "name": "description",
          "type": "string"
        },
        {
          "name": "ipfsHash",
          "type": "string"
        }
      ],
      "name": "addEventLog",
      "outputs": [],
      "payable": false,
      "stateMutability": "nonpayable",
      "type": "function"
    },
    {
      "constant": true,
      "inputs": [],
      "name": "getEventLogsNumber",
      "outputs": [
        {
          "name": "",
          "type": "uint256"
        }
      ],
      "payable": false,
      "stateMutability": "view",
      "type": "function"
    }
  ],
  "bytecode": "0x606060405234156200001057600080fd5b60405162001f5438038062001f5483398101604052808051906020019091908051820191906020018051820191905050336000806101000a81548173ffffffffffffffffffffffffffffffffffffffff021916908373ffffffffffffffffffffffffffffffffffffffff1602179055508260028190555081600390805190602001906200009f929190620000c2565b508060059080519060200190620000b8929190620000c2565b5050505062000171565b828054600181600116156101000203166002900490600052602060002090601f016020900481019282601f106200010557805160ff191683800117855562000136565b8280016001018555821562000136579182015b828111156200013557825182559160200191906001019062000118565b5b50905062000145919062000149565b5090565b6200016e91905b808211156200016a57600081600090555060010162000150565b5090565b90565b611dd380620001816000396000f300606060405260043610610107576000357c0100000000000000000000000000000000000000000000000000000000900463ffffffff16806306c28ed71461010c5780630b4fc64c1461019a5780631869b904146102375780631bc52d9b146104095780631f49d9c91461043257806337c8dacc146105155780633b452b8e146105a3578063486bce52146106315780634b0a3e7b146106a257806351b01d86146107815780637284e4161461089b57806388e687ea146109295780638f20373a1461097e5780639b0b6886146109a7578063c8dbb0f514610a7d578063cfc4f82014610aa6578063d386c22614610b42578063d6ed2f0614610c18578063ed7c238d14610c41575b600080fd5b341561011757600080fd5b61011f610cdd565b6040518080602001828103825283818151815260200191508051906020019080838360005b8381101561015f578082015181840152602081019050610144565b50505050905090810190601f16801561018c5780820380516001836020036101000a031916815260200191505b509250505060405180910390f35b34156101a557600080fd5b6101f5600480803590602001908201803590602001908080601f01602080910402602001604051908101604052809392919081815260200183838082843782019150505050505091905050610d20565b604051808273ffffffffffffffffffffffffffffffffffffffff1673ffffffffffffffffffffffffffffffffffffffff16815260200191505060405180910390f35b341561024257600080fd5b6102586004808035906020019091905050610dbd565b604051808581526020018060200180602001806020018481038452878181546001816001161561010002031660029004815260200191508054600181600116156101000203166002900480156102ef5780601f106102c4576101008083540402835291602001916102ef565b820191906000526020600020905b8154815290600101906020018083116102d257829003601f168201915b50508481038352868181546001816001161561010002031660029004815260200191508054600181600116156101000203166002900480156103725780601f1061034757610100808354040283529160200191610372565b820191906000526020600020905b81548152906001019060200180831161035557829003601f168201915b50508481038252858181546001816001161561010002031660029004815260200191508054600181600116156101000203166002900480156103f55780601f106103ca576101008083540402835291602001916103f5565b820191906000526020600020905b8154815290600101906020018083116103d857829003601f168201915b505097505050505050505060405180910390f35b341561041457600080fd5b61041c610df9565b6040518082815260200191505060405180910390f35b341561043d57600080fd5b610513600480803590602001908201803590602001908080601f0160208091040260200160405190810160405280939291908181526020018383808284378201915050505050509190803590602001908201803590602001908080601f0160208091040260200160405190810160405280939291908181526020018383808284378201915050505050509190803590602001908201803590602001908080601f01602080910402602001604051908101604052809392919081815260200183838082843782019150505050505091905050610dff565b005b341561052057600080fd5b610528610f0a565b6040518080602001828103825283818151815260200191508051906020019080838360005b8381101561056857808201518184015260208101905061054d565b50505050905090810190601f1680156105955780820380516001836020036101000a031916815260200191505b509250505060405180910390f35b34156105ae57600080fd5b6105b6610fa8565b6040518080602001828103825283818151815260200191508051906020019080838360005b838110156105f65780820151818401526020810190506105db565b50505050905090810190601f1680156106235780820380516001836020036101000a031916815260200191505b509250505060405180910390f35b341561063c57600080fd5b61068c600480803590602001908201803590602001908080601f01602080910402602001604051908101604052809392919081815260200183838082843782019150505050505091905050611046565b6040518082815260200191505060405180910390f35b34156106ad57600080fd5b610706600480803590602001908201803590602001908080601f01602080910402602001604051908101604052809392919081815260200183838082843782019150505050505091908035906020019091905050611113565b6040518080602001828103825283818151815260200191508051906020019080838360005b8381101561074657808201518184015260208101905061072b565b50505050905090810190601f1680156107735780820380516001836020036101000a031916815260200191505b509250505060405180910390f35b341561078c57600080fd5b610881600480803590602001908201803590602001908080601f0160208091040260200160405190810160405280939291908181526020018383808284378201915050505050509190803590602001908201803590602001908080601f0160208091040260200160405190810160405280939291908181526020018383808284378201915050505050509190803573ffffffffffffffffffffffffffffffffffffffff1690602001909190803590602001908201803590602001908080601f016020809104026020016040519081016040528093929190818152602001838380828437820191505050505050919050506112ce565b604051808215151515815260200191505060405180910390f35b34156108a657600080fd5b6108ae6115b7565b6040518080602001828103825283818151815260200191508051906020019080838360005b838110156108ee5780820151818401526020810190506108d3565b50505050905090810190601f16801561091b5780820380516001836020036101000a031916815260200191505b509250505060405180910390f35b341561093457600080fd5b61093c611655565b604051808273ffffffffffffffffffffffffffffffffffffffff1673ffffffffffffffffffffffffffffffffffffffff16815260200191505060405180910390f35b341561098957600080fd5b61099161167a565b6040518082815260200191505060405180910390f35b34156109b257600080fd5b610a02600480803590602001908201803590602001908080601f01602080910402602001604051908101604052809392919081815260200183838082843782019150505050505091905050611687565b6040518080602001828103825283818151815260200191508051906020019080838360005b83811015610a42578082015181840152602081019050610a27565b50505050905090810190601f168015610a6f5780820380516001836020036101000a031916815260200191505b509250505060405180910390f35b3415610a8857600080fd5b610a90611821565b6040518082815260200191505060405180910390f35b3415610ab157600080fd5b610ac7600480803590602001909190505061182e565b6040518080602001828103825283818151815260200191508051906020019080838360005b83811015610b07578082015181840152602081019050610aec565b50505050905090810190601f168015610b345780820380516001836020036101000a031916815260200191505b509250505060405180910390f35b3415610b4d57600080fd5b610b9d600480803590602001908201803590602001908080601f016020809104026020016040519081016040528093929190818152602001838380828437820191505050505050919050506118ea565b6040518080602001828103825283818151815260200191508051906020019080838360005b83811015610bdd578082015181840152602081019050610bc2565b50505050905090810190601f168015610c0a5780820380516001836020036101000a031916815260200191505b509250505060405180910390f35b3415610c2357600080fd5b610c2b611a06565b6040518082815260200191505060405180910390f35b3415610c4c57600080fd5b610c626004808035906020019091905050611a0c565b6040518080602001828103825283818151815260200191508051906020019080838360005b83811015610ca2578082015181840152602081019050610c87565b50505050905090810190601f168015610ccf5780820380516001836020036101000a031916815260200191505b509250505060405180910390f35b610ce5611ace565b6040805190810160405280600281526020017f5b5d000000000000000000000000000000000000000000000000000000000000815250905090565b6000806007836040518082805190602001908083835b602083101515610d5b5780518252602082019150602081019050602083039250610d36565b6001836020036101000a038019825116818451168082178552505050505050905001915050908152602001604051809103902090508060030160009054906101000a900473ffffffffffffffffffffffffffffffffffffffff16915050919050565b600881815481101515610dcc57fe5b90600052602060002090600402016000915090508060000154908060010190806002019080600301905084565b60025481565b600042816000018190555083816001019080519060200190610e22929190611ae2565b5082816002019080519060200190610e3b929190611ae2565b5081816003019080519060200190610e54929190611ae2565b5060088054806001018281610e699190611b62565b916000526020600020906004020160008390919091506000820154816000015560018201816001019080546001816001161561010002031660029004610eb0929190611b94565b5060028201816002019080546001816001161561010002031660029004610ed8929190611b94565b5060038201816003019080546001816001161561010002031660029004610f00929190611b94565b5050505050505050565b60018054600181600116156101000203166002900480601f016020809104026020016040519081016040528092919081815260200182805460018160011615610100020316600290048015610fa05780601f10610f7557610100808354040283529160200191610fa0565b820191906000526020600020905b815481529060010190602001808311610f8357829003601f168201915b505050505081565b60058054600181600116156101000203166002900480601f01602080910402602001604051908101604052809291908181526020018280546001816001161561010002031660029004801561103e5780601f106110135761010080835404028352916020019161103e565b820191906000526020600020905b81548152906001019060200180831161102157829003601f168201915b505050505081565b6000806007836040518082805190602001908083835b602083101515611081578051825260208201915060208101905060208303925061105c565b6001836020036101000a0380198251168184511680821785525050505050509050019150509081526020016040518091039020905060008160030160009054906101000a900473ffffffffffffffffffffffffffffffffffffffff1673ffffffffffffffffffffffffffffffffffffffff161415611102576000915061110d565b806000018054905091505b50919050565b61111b611ace565b60006007846040518082805190602001908083835b6020831015156111555780518252602082019150602081019050602083039250611130565b6001836020036101000a0380198251168184511680821785525050505050509050019150509081526020016040518091039020905060008160030160009054906101000a900473ffffffffffffffffffffffffffffffffffffffff1673ffffffffffffffffffffffffffffffffffffffff1614156111e557602060405190810160405280600081525091506112c7565b600183018160000180549050101561120f57602060405190810160405280600081525091506112c7565b806000018381548110151561122057fe5b90600052602060002090018054600181600116156101000203166002900480601f0160208091040260200160405190810160405280929190818152602001828054600181600116156101000203166002900480156112bf5780601f10611294576101008083540402835291602001916112bf565b820191906000526020600020905b8154815290600101906020018083116112a257829003601f168201915b505050505091505b5092915050565b6000806007866040518082805190602001908083835b60208310151561130957805182526020820191506020810190506020830392506112e4565b6001836020036101000a0380198251168184511680821785525050505050509050019150509081526020016040518091039020905060008160030160009054906101000a900473ffffffffffffffffffffffffffffffffffffffff1673ffffffffffffffffffffffffffffffffffffffff1614156113be57600680548060010182816113959190611c1b565b9160005260206000209001600088909190915090805190602001906113bb929190611ae2565b50505b8060000180548060010182816113d49190611c1b565b9160005260206000209001600085909190915090805190602001906113fa929190611ae2565b505084816002019080519060200190611414929190611ae2565b50838160030160006101000a81548173ffffffffffffffffffffffffffffffffffffffff021916908373ffffffffffffffffffffffffffffffffffffffff16021790555085816001019080519060200190611470929190611ae2565b50806007876040518082805190602001908083835b6020831015156114aa5780518252602082019150602081019050602083039250611485565b6001836020036101000a038019825116818451168082178552505050505050905001915050908152602001604051809103902060008201816000019080546114f3929190611c47565b506001820181600101908054600181600116156101000203166002900461151b929190611b94565b5060028201816002019080546001816001161561010002031660029004611543929190611b94565b506003820160009054906101000a900473ffffffffffffffffffffffffffffffffffffffff168160030160006101000a81548173ffffffffffffffffffffffffffffffffffffffff021916908373ffffffffffffffffffffffffffffffffffffffff16021790555090505050949350505050565b60038054600181600116156101000203166002900480601f01602080910402602001604051908101604052809291908181526020018280546001816001161561010002031660029004801561164d5780601f106116225761010080835404028352916020019161164d565b820191906000526020600020905b81548152906001019060200180831161163057829003601f168201915b505050505081565b6000809054906101000a900473ffffffffffffffffffffffffffffffffffffffff1681565b6000600680549050905090565b61168f611ace565b60006007836040518082805190602001908083835b6020831015156116c957805182526020820191506020810190506020830392506116a4565b6001836020036101000a0380198251168184511680821785525050505050509050019150509081526020016040518091039020905060008160030160009054906101000a900473ffffffffffffffffffffffffffffffffffffffff1673ffffffffffffffffffffffffffffffffffffffff161415611759576020604051908101604052806000815250915061181b565b80600001600182600001805490500381548110151561177457fe5b90600052602060002090018054600181600116156101000203166002900480601f0160208091040260200160405190810160405280929190818152602001828054600181600116156101000203166002900480156118135780601f106117e857610100808354040283529160200191611813565b820191906000526020600020905b8154815290600101906020018083116117f657829003601f168201915b505050505091505b50919050565b6000600880549050905090565b60068181548110151561183d57fe5b90600052602060002090016000915090508054600181600116156101000203166002900480601f0160208091040260200160405190810160405280929190818152602001828054600181600116156101000203166002900480156118e25780601f106118b7576101008083540402835291602001916118e2565b820191906000526020600020905b8154815290600101906020018083116118c557829003601f168201915b505050505081565b6118f2611ace565b60006007836040518082805190602001908083835b60208310151561192c5780518252602082019150602081019050602083039250611907565b6001836020036101000a03801982511681845116808217855250505050505090500191505090815260200160405180910390209050806002018054600181600116156101000203166002900480601f0160208091040260200160405190810160405280929190818152602001828054600181600116156101000203166002900480156119f95780601f106119ce576101008083540402835291602001916119f9565b820191906000526020600020905b8154815290600101906020018083116119dc57829003601f168201915b5050505050915050919050565b60045481565b611a14611ace565b600682815481101515611a2357fe5b90600052602060002090018054600181600116156101000203166002900480601f016020809104026020016040519081016040528092919081815260200182805460018160011615610100020316600290048015611ac25780601f10611a9757610100808354040283529160200191611ac2565b820191906000526020600020905b815481529060010190602001808311611aa557829003601f168201915b50505050509050919050565b602060405190810160405280600081525090565b828054600181600116156101000203166002900490600052602060002090601f016020900481019282601f10611b2357805160ff1916838001178555611b51565b82800160010185558215611b51579182015b82811115611b50578251825591602001919060010190611b35565b5b509050611b5e9190611cb7565b5090565b815481835581811511611b8f57600402816004028360005260206000209182019101611b8e9190611cdc565b5b505050565b828054600181600116156101000203166002900490600052602060002090601f016020900481019282601f10611bcd5780548555611c0a565b82800160010185558215611c0a57600052602060002091601f016020900482015b82811115611c09578254825591600101919060010190611bee565b5b509050611c179190611cb7565b5090565b815481835581811511611c4257818360005260206000209182019101611c419190611d33565b5b505050565b828054828255906000526020600020908101928215611ca65760005260206000209182015b82811115611ca55782829080546001816001161561010002031660029004611c95929190611b94565b5091600101919060010190611c6c565b5b509050611cb39190611d33565b5090565b611cd991905b80821115611cd5576000816000905550600101611cbd565b5090565b90565b611d3091905b80821115611d2c57600080820160009055600182016000611d039190611d5f565b600282016000611d139190611d5f565b600382016000611d239190611d5f565b50600401611ce2565b5090565b90565b611d5c91905b80821115611d585760008181611d4f9190611d5f565b50600101611d39565b5090565b90565b50805460018160011615610100020316600290046000825580601f10611d855750611da4565b601f016020900490600052602060002090810190611da39190611cb7565b5b505600a165627a7a72305820313b43a96077ad27ac8f3f2d1ec947d33be6f963c03c7d47e956d1c8b845e5cb0029",
  "source": "pragma solidity ^0.4.17;\r\n\r\ncontract DADetails {\r\n\r\n    //STRUCTS\r\n    struct FileAttachment {\r\n        string[] ipfsHash;\r\n        string fileName;\r\n        string fileType;\r\n        address uploadedBy;\r\n    }\r\n\r\n    struct EventLog {\r\n        uint date;\r\n        string party;\r\n        string description;\r\n        string ipfsHash;\r\n    }\r\n\r\n    // EVENTS\r\n    event StateChanged();\r\n    // ... all the state changes ...\r\n\r\n\r\n    // FIELDS\r\n    address public applicant;\r\n    string public daid;\r\n    uint public dateLodged;\r\n    //...\r\n    // parcels {LotId, SectionId, PlanId, PlanType};\r\n    string public description;\r\n    uint public estimatedCost;\r\n    string public lga;\r\n\r\n    string[] public fileNames; \r\n    mapping (string => FileAttachment) attachments;\r\n    EventLog[] public eventLogs;\r\n\r\n    // statechangedevents[]\r\n\r\n\r\n    // CONSTRUCTOR\r\n    function DADetails (uint _dateLodged, string _description, string _lga) public {\r\n        applicant = msg.sender;\r\n        dateLodged = _dateLodged;\r\n        description = _description;\r\n        lga = _lga;\r\n    }\r\n\r\n    // METHODS\r\n\r\n    // get the hash of all the geographic files associated with this contract\r\n    function getGeoFiles() public view returns (string) {\r\n        return \"[]\";\r\n    }\r\n\r\n    function addAttachment(string fileName, string fileType, address uploadedBy, string ipfsHash) public returns(bool) {\r\n        // look for the file name in the contract already\r\n        var attachment = attachments[fileName];\r\n        // if it's there, simply add the ipfs hash to the array of hashes, update the filetype and uploadedby\r\n        // if it's not, we get a blank one back, so this will fill it in.\r\n        if (attachment.uploadedBy == 0x00) {\r\n            fileNames.push(fileName);\r\n        }\r\n        attachment.ipfsHash.push(ipfsHash);\r\n        attachment.fileType = fileType;\r\n        attachment.uploadedBy = uploadedBy;\r\n        attachment.fileName = fileName;\r\n        attachments[fileName] = attachment;\r\n    }\r\n\r\n    function getFileNamesCount() public view returns(uint256) {\r\n        return fileNames.length;\r\n    }\r\n\r\n    function getFileName(uint256 index) public view returns(string) {\r\n        return fileNames[index];\r\n    }\r\n\r\n    function getFileType(string fileName) public view returns(string) {\r\n        var attachment = attachments[fileName];\r\n        return attachment.fileType;\r\n    } \r\n\r\n    function getLatestIpfsHash(string fileName) public view returns(string) {\r\n        var attachment = attachments[fileName];\r\n        if (attachment.uploadedBy == 0x00) {\r\n            return \"\";\r\n        } else {\r\n            return attachment.ipfsHash[attachment.ipfsHash.length - 1];\r\n        }\r\n    }\r\n\r\n    function getAttachmentVersionCount(string fileName) public view returns(uint256) {\r\n        var attachment = attachments[fileName];\r\n        if (attachment.uploadedBy == 0x00) {\r\n            return 0;\r\n        } else {\r\n            return attachment.ipfsHash.length;\r\n        }\r\n    }\r\n\r\n    function getAttachmentVersionByIndex(string fileName, uint256 index) public view returns(string) {\r\n        var attachment = attachments[fileName];\r\n        if (attachment.uploadedBy == 0x00) {\r\n            return \"\";\r\n        } else if (attachment.ipfsHash.length < index + 1) {\r\n            return \"\";\r\n        } else {\r\n            return attachment.ipfsHash[index];\r\n        }\r\n    }\r\n\r\n    function getUploadedBy(string fileName) public view returns(address) {\r\n        var attachment = attachments[fileName];\r\n        return attachment.uploadedBy;\r\n    }\r\n\r\n    function addEventLog(string party, string description, string ipfsHash) public {\r\n        EventLog eventLog;\r\n        eventLog.date = now;\r\n        eventLog.party = party;\r\n        eventLog.description = description;\r\n        eventLog.ipfsHash = ipfsHash;\r\n        eventLogs.push(eventLog);\r\n    }\r\n\r\n    function getEventLogsNumber() public view returns (uint256) {\r\n        return eventLogs.length;\r\n    }\r\n\r\n}",
  "sourcePath": "/mnt/d/OneDrive - Microsoft/DSFI/Blockchain-For-Land-Development-Approvals/truffle/contracts/DADetails.sol",
  "compiler": {
    "name": "solc",
    "version": "0.4.19+commit.c4cbbb05.Emscripten.clang"
  },
  "schemaVersion": "1.0.1",
  "updatedAt": "2018-02-27T23:13:47.842Z"
}