{
  "contractName": "DARegister",
  "abi": [
    {
      "constant": false,
      "inputs": [
        {
          "name": "_daId",
          "type": "string"
        },
        {
          "name": "_address",
          "type": "address"
        }
      ],
      "name": "registerDA",
      "outputs": [],
      "payable": false,
      "stateMutability": "nonpayable",
      "type": "function"
    },
    {
      "constant": true,
      "inputs": [
        {
          "name": "_daId",
          "type": "string"
        }
      ],
      "name": "getDADetailsAddress",
      "outputs": [
        {
          "name": "",
          "type": "address"
        }
      ],
      "payable": false,
      "stateMutability": "view",
      "type": "function"
    },
    {
      "constant": true,
      "inputs": [],
      "name": "getDARegisterCount",
      "outputs": [
        {
          "name": "",
          "type": "uint256"
        }
      ],
      "payable": false,
      "stateMutability": "view",
      "type": "function"
    },
    {
      "constant": true,
      "inputs": [
        {
          "name": "index",
          "type": "uint256"
        }
      ],
      "name": "getDARegisterId",
      "outputs": [
        {
          "name": "",
          "type": "string"
        }
      ],
      "payable": false,
      "stateMutability": "view",
      "type": "function"
    },
    {
      "constant": false,
      "inputs": [
        {
          "name": "_daId",
          "type": "string"
        },
        {
          "name": "_dateLodged",
          "type": "uint256"
        },
        {
          "name": "_description",
          "type": "string"
        },
        {
          "name": "_lga",
          "type": "string"
        }
      ],
      "name": "createDA",
      "outputs": [],
      "payable": false,
      "stateMutability": "nonpayable",
      "type": "function"
    }
  ],
  "bytecode": "0x6060604052341561000f57600080fd5b613b3c8061001e6000396000f30060606040526004361061006d576000357c0100000000000000000000000000000000000000000000000000000000900463ffffffff1680634a73b6f71461007257806377fac6551461010f5780638dc4dd5a1461018b57806391884a9e146102275780639a29599814610250575b600080fd5b341561007d57600080fd5b6100cd600480803590602001908201803590602001908080601f0160208091040260200160405190810160405280939291908181526020018383808284378201915050505050509190505061033c565b604051808273ffffffffffffffffffffffffffffffffffffffff1673ffffffffffffffffffffffffffffffffffffffff16815260200191505060405180910390f35b341561011a57600080fd5b610189600480803590602001908201803590602001908080601f0160208091040260200160405190810160405280939291908181526020018383808284378201915050505050509190803573ffffffffffffffffffffffffffffffffffffffff169060200190919050506103d0565b005b341561019657600080fd5b6101ac6004808035906020019091905050610564565b6040518080602001828103825283818151815260200191508051906020019080838360005b838110156101ec5780820151818401526020810190506101d1565b50505050905090810190601f1680156102195780820380516001836020036101000a031916815260200191505b509250505060405180910390f35b341561023257600080fd5b61023a610626565b6040518082815260200191505060405180910390f35b341561025b57600080fd5b61033a600480803590602001908201803590602001908080601f0160208091040260200160405190810160405280939291908181526020018383808284378201915050505050509190803590602001909190803590602001908201803590602001908080601f0160208091040260200160405190810160405280939291908181526020018383808284378201915050505050509190803590602001908201803590602001908080601f01602080910402602001604051908101604052809392919081815260200183838082843782019150505050505091905050610633565b005b600080826040518082805190602001908083835b6020831015156103755780518252602082019150602081019050602083039250610350565b6001836020036101000a038019825116818451168082178552505050505050905001915050908152602001604051809103902060009054906101000a900473ffffffffffffffffffffffffffffffffffffffff169050919050565b600080836040518082805190602001908083835b60208310151561040957805182526020820191506020810190506020830392506103e4565b6001836020036101000a038019825116818451168082178552505050505050905001915050908152602001604051809103902060009054906101000a900473ffffffffffffffffffffffffffffffffffffffff1673ffffffffffffffffffffffffffffffffffffffff1614156104b6576001805480600101828161048d91906107b8565b9160005260206000209001600084909190915090805190602001906104b39291906107e4565b50505b806000836040518082805190602001908083835b6020831015156104ef57805182526020820191506020810190506020830392506104ca565b6001836020036101000a038019825116818451168082178552505050505050905001915050908152602001604051809103902060006101000a81548173ffffffffffffffffffffffffffffffffffffffff021916908373ffffffffffffffffffffffffffffffffffffffff1602179055505050565b61056c610864565b60018281548110151561057b57fe5b90600052602060002090018054600181600116156101000203166002900480601f01602080910402602001604051908101604052809291908181526020018280546001816001161561010002031660029004801561061a5780601f106105ef5761010080835404028352916020019161061a565b820191906000526020600020905b8154815290600101906020018083116105fd57829003601f168201915b50505050509050919050565b6000600180549050905090565b600084848484610641610878565b80806020018581526020018060200180602001848103845288818151815260200191508051906020019080838360005b8381101561068c578082015181840152602081019050610671565b50505050905090810190601f1680156106b95780820380516001836020036101000a031916815260200191505b50848103835286818151815260200191508051906020019080838360005b838110156106f25780820151818401526020810190506106d7565b50505050905090810190601f16801561071f5780820380516001836020036101000a031916815260200191505b50848103825285818151815260200191508051906020019080838360005b8381101561075857808201518184015260208101905061073d565b50505050905090810190601f1680156107855780820380516001836020036101000a031916815260200191505b50975050505050505050604051809103906000f08015156107a557600080fd5b90506107b185826103d0565b5050505050565b8154818355818115116107df578183600052602060002091820191016107de9190610888565b5b505050565b828054600181600116156101000203166002900490600052602060002090601f016020900481019282601f1061082557805160ff1916838001178555610853565b82800160010185558215610853579182015b82811115610852578251825591602001919060010190610837565b5b50905061086091906108b4565b5090565b602060405190810160405280600081525090565b6040516131ef8061092283390190565b6108b191905b808211156108ad57600081816108a491906108d9565b5060010161088e565b5090565b90565b6108d691905b808211156108d25760008160009055506001016108ba565b5090565b90565b50805460018160011615610100020316600290046000825580601f106108ff575061091e565b601f01602090049060005260206000209081019061091d91906108b4565b5b505600606060405234156200001057600080fd5b604051620031ef380380620031ef83398101604052808051820191906020018051906020019091908051820191906020018051820191905050336000806101000a81548173ffffffffffffffffffffffffffffffffffffffff021916908373ffffffffffffffffffffffffffffffffffffffff1602179055508360019080519060200190620000a1929190620000e5565b50826002819055508160049080519060200190620000c1929190620000e5565b508060069080519060200190620000da929190620000e5565b505050505062000194565b828054600181600116156101000203166002900490600052602060002090601f016020900481019282601f106200012857805160ff191683800117855562000159565b8280016001018555821562000159579182015b82811115620001585782518255916020019190600101906200013b565b5b5090506200016891906200016c565b5090565b6200019191905b808211156200018d57600081600090555060010162000173565b5090565b90565b61304b80620001a46000396000f3006060604052600436106101a1576000357c0100000000000000000000000000000000000000000000000000000000900463ffffffff16806306c28ed7146101a65780630b4fc64c14610234578063120871f6146102d157806316b664d0146103425780631bc52d9b1461045f5780632f8d041714610488578063378aa701146104b157806337c8dacc146104e85780633afc4b83146105765780633b452b8e14610612578063402ee26d146106a0578063454ac157146106c6578063486bce52146106ef5780634b0a3e7b146107605780634f3077151461083f57806351b01d86146108db57806368aaa4be146109f55780637284e41614610a32578063754fdefb14610ac057806388e687ea14610afd5780638f20373a14610b525780639653b33214610b7b5780639b0b688614610c98578063bb00b80914610d6e578063bd94a9a014610dab578063c8c7a22d14610ec8578063cfc4f82014610f05578063d386c22614610fa1578063d6ed2f0614611077578063e5571385146110a0578063ed7c238d146111bd578063f1b6dccd14611259578063f97828a114611290575b600080fd5b34156101b157600080fd5b6101b96113ce565b6040518080602001828103825283818151815260200191508051906020019080838360005b838110156101f95780820151818401526020810190506101de565b50505050905090810190601f1680156102265780820380516001836020036101000a031916815260200191505b509250505060405180910390f35b341561023f57600080fd5b61028f600480803590602001908201803590602001908080601f01602080910402602001604051908101604052809392919081815260200183838082843782019150505050505091905050611411565b604051808273ffffffffffffffffffffffffffffffffffffffff1673ffffffffffffffffffffffffffffffffffffffff16815260200191505060405180910390f35b34156102dc57600080fd5b61032c600480803590602001908201803590602001908080601f016020809104026020016040519081016040528093929190818152602001838380828437820191505050505050919050506114ae565b6040518082815260200191505060405180910390f35b341561034d57600080fd5b61045d600480803573ffffffffffffffffffffffffffffffffffffffff1690602001909190803590602001908201803590602001908080601f0160208091040260200160405190810160405280939291908181526020018383808284378201915050505050509190803590602001909190803590602001908201803590602001908080601f0160208091040260200160405190810160405280939291908181526020018383808284378201915050505050509190803590602001908201803590602001908080601f01602080910402602001604051908101604052809392919081815260200183838082843782019150505050505091908035906020019091908035906020019091905050611724565b005b341561046a57600080fd5b610472611841565b6040518082815260200191505060405180910390f35b341561049357600080fd5b61049b611847565b6040518082815260200191505060405180910390f35b34156104bc57600080fd5b6104c461184d565b604051808260088111156104d457fe5b60ff16815260200191505060405180910390f35b34156104f357600080fd5b6104fb611864565b6040518080602001828103825283818151815260200191508051906020019080838360005b8381101561053b578082015181840152602081019050610520565b50505050905090810190601f1680156105685780820380516001836020036101000a031916815260200191505b509250505060405180910390f35b341561058157600080fd5b6105976004808035906020019091905050611902565b6040518080602001828103825283818151815260200191508051906020019080838360005b838110156105d75780820151818401526020810190506105bc565b50505050905090810190601f1680156106045780820380516001836020036101000a031916815260200191505b509250505060405180910390f35b341561061d57600080fd5b6106256119c4565b6040518080602001828103825283818151815260200191508051906020019080838360005b8381101561066557808201518184015260208101905061064a565b50505050905090810190601f1680156106925780820380516001836020036101000a031916815260200191505b509250505060405180910390f35b34156106ab57600080fd5b6106c4600480803560ff16906020019091905050611a62565b005b34156106d157600080fd5b6106d9611acd565b6040518082815260200191505060405180910390f35b34156106fa57600080fd5b61074a600480803590602001908201803590602001908080601f01602080910402602001604051908101604052809392919081815260200183838082843782019150505050505091905050611ada565b6040518082815260200191505060405180910390f35b341561076b57600080fd5b6107c4600480803590602001908201803590602001908080601f01602080910402602001604051908101604052809392919081815260200183838082843782019150505050505091908035906020019091905050611ba7565b6040518080602001828103825283818151815260200191508051906020019080838360005b838110156108045780820151818401526020810190506107e9565b50505050905090810190601f1680156108315780820380516001836020036101000a031916815260200191505b509250505060405180910390f35b341561084a57600080fd5b6108606004808035906020019091905050611d62565b6040518080602001828103825283818151815260200191508051906020019080838360005b838110156108a0578082015181840152602081019050610885565b50505050905090810190601f1680156108cd5780820380516001836020036101000a031916815260200191505b509250505060405180910390f35b34156108e657600080fd5b6109db600480803590602001908201803590602001908080601f0160208091040260200160405190810160405280939291908181526020018383808284378201915050505050509190803590602001908201803590602001908080601f0160208091040260200160405190810160405280939291908181526020018383808284378201915050505050509190803573ffffffffffffffffffffffffffffffffffffffff1690602001909190803590602001908201803590602001908080601f01602080910402602001604051908101604052809392919081815260200183838082843782019150505050505091905050611e1e565b604051808215151515815260200191505060405180910390f35b3415610a0057600080fd5b610a1860048080351515906020019091905050612107565b604051808215151515815260200191505060405180910390f35b3415610a3d57600080fd5b610a456121de565b6040518080602001828103825283818151815260200191508051906020019080838360005b83811015610a85578082015181840152602081019050610a6a565b50505050905090810190601f168015610ab25780820380516001836020036101000a031916815260200191505b509250505060405180910390f35b3415610acb57600080fd5b610ae36004808035151590602001909190505061227c565b604051808215151515815260200191505060405180910390f35b3415610b0857600080fd5b610b10612353565b604051808273ffffffffffffffffffffffffffffffffffffffff1673ffffffffffffffffffffffffffffffffffffffff16815260200191505060405180910390f35b3415610b5d57600080fd5b610b65612378565b6040518082815260200191505060405180910390f35b3415610b8657600080fd5b610c96600480803573ffffffffffffffffffffffffffffffffffffffff1690602001909190803590602001908201803590602001908080601f0160208091040260200160405190810160405280939291908181526020018383808284378201915050505050509190803590602001909190803590602001908201803590602001908080601f0160208091040260200160405190810160405280939291908181526020018383808284378201915050505050509190803590602001908201803590602001908080601f01602080910402602001604051908101604052809392919081815260200183838082843782019150505050505091908035906020019091908035906020019091905050612385565b005b3415610ca357600080fd5b610cf3600480803590602001908201803590602001908080601f01602080910402602001604051908101604052809392919081815260200183838082843782019150505050505091905050612466565b6040518080602001828103825283818151815260200191508051906020019080838360005b83811015610d33578082015181840152602081019050610d18565b50505050905090810190601f168015610d605780820380516001836020036101000a031916815260200191505b509250505060405180910390f35b3415610d7957600080fd5b610d9160048080351515906020019091905050612600565b604051808215151515815260200191505060405180910390f35b3415610db657600080fd5b610ec6600480803573ffffffffffffffffffffffffffffffffffffffff1690602001909190803590602001908201803590602001908080601f0160208091040260200160405190810160405280939291908181526020018383808284378201915050505050509190803590602001909190803590602001908201803590602001908080601f0160208091040260200160405190810160405280939291908181526020018383808284378201915050505050509190803590602001908201803590602001908080601f016020809104026020016040519081016040528093929190818152602001838380828437820191505050505050919080359060200190919080359060200190919050506126d7565b005b3415610ed357600080fd5b610eeb600480803515159060200190919050506127b8565b604051808215151515815260200191505060405180910390f35b3415610f1057600080fd5b610f26600480803590602001909190505061288f565b6040518080602001828103825283818151815260200191508051906020019080838360005b83811015610f66578082015181840152602081019050610f4b565b50505050905090810190601f168015610f935780820380516001836020036101000a031916815260200191505b509250505060405180910390f35b3415610fac57600080fd5b610ffc600480803590602001908201803590602001908080601f0160208091040260200160405190810160405280939291908181526020018383808284378201915050505050509190505061294b565b6040518080602001828103825283818151815260200191508051906020019080838360005b8381101561103c578082015181840152602081019050611021565b50505050905090810190601f1680156110695780820380516001836020036101000a031916815260200191505b509250505060405180910390f35b341561108257600080fd5b61108a612a67565b6040518082815260200191505060405180910390f35b34156110ab57600080fd5b6111bb600480803573ffffffffffffffffffffffffffffffffffffffff1690602001909190803590602001908201803590602001908080601f0160208091040260200160405190810160405280939291908181526020018383808284378201915050505050509190803590602001909190803590602001908201803590602001908080601f0160208091040260200160405190810160405280939291908181526020018383808284378201915050505050509190803590602001908201803590602001908080601f01602080910402602001604051908101604052809392919081815260200183838082843782019150505050505091908035906020019091908035906020019091905050612a6d565b005b34156111c857600080fd5b6111de6004808035906020019091905050612b1a565b6040518080602001828103825283818151815260200191508051906020019080838360005b8381101561121e578082015181840152602081019050611203565b50505050905090810190601f16801561124b5780820380516001836020036101000a031916815260200191505b509250505060405180910390f35b341561126457600080fd5b61126c612bdc565b6040518082600881111561127c57fe5b60ff16815260200191505060405180910390f35b341561129b57600080fd5b6113b4600480803590602001908201803590602001908080601f0160208091040260200160405190810160405280939291908181526020018383808284378201915050505050509190803590602001908201803590602001908080601f0160208091040260200160405190810160405280939291908181526020018383808284378201915050505050509190803590602001908201803590602001908080601f0160208091040260200160405190810160405280939291908181526020018383808284378201915050505050509190803590602001908201803590602001908080601f01602080910402602001604051908101604052809392919081815260200183838082843782019150505050505091905050612bef565b604051808215151515815260200191505060405180910390f35b6113d6612d80565b6040805190810160405280600281526020017f5b5d000000000000000000000000000000000000000000000000000000000000815250905090565b6000806008836040518082805190602001908083835b60208310151561144c5780518252602082019150602081019050602083039250611427565b6001836020036101000a038019825116818451168082178552505050505050905001915050908152602001604051809103902090508060030160009054906101000a900473ffffffffffffffffffffffffffffffffffffffff16915050919050565b6114b6612d94565b600a826040518082805190602001908083835b6020831015156114ee57805182526020820191506020810190506020830392506114c9565b6001836020036101000a03801982511681845116808217855250505050505090500191505090815260200160405180910390206080604051908101604052908160008201548152602001600182018054600181600116156101000203166002900480601f0160208091040260200160405190810160405280929190818152602001828054600181600116156101000203166002900480156115d05780601f106115a5576101008083540402835291602001916115d0565b820191906000526020600020905b8154815290600101906020018083116115b357829003601f168201915b50505050508152602001600282018054600181600116156101000203166002900480601f0160208091040260200160405190810160405280929190818152602001828054600181600116156101000203166002900480156116725780601f1061164757610100808354040283529160200191611672565b820191906000526020600020905b81548152906001019060200180831161165557829003601f168201915b50505050508152602001600382018054600181600116156101000203166002900480601f0160208091040260200160405190810160405280929190818152602001828054600181600116156101000203166002900480156117145780601f106116e957610100808354040283529160200191611714565b820191906000526020600020905b8154815290600101906020018083116116f757829003601f168201915b5050505050815250509050919050565b6006600881111561173157fe5b600b60009054906101000a900460ff16600881111561174c57fe5b14151561175857600080fd5b336000806101000a81548173ffffffffffffffffffffffffffffffffffffffff021916908373ffffffffffffffffffffffffffffffffffffffff16021790555085600190805190602001906117ae929190612dcf565b508460028190555083600490805190602001906117cc929190612dcf565b5082600690805190602001906117e3929190612dcf565b5081600581905550806003819055507f551dc40198cc79684bb69e4931dba4ac16e4598792ee1c0a5000aeea366d7bb660076040518082600881111561182557fe5b60ff16815260200191505060405180910390a150505050505050565b60025481565b60035481565b6000600b60009054906101000a900460ff16905090565b60018054600181600116156101000203166002900480601f0160208091040260200160405190810160405280929190818152602001828054600181600116156101000203166002900480156118fa5780601f106118cf576101008083540402835291602001916118fa565b820191906000526020600020905b8154815290600101906020018083116118dd57829003601f168201915b505050505081565b61190a612d80565b60098281548110151561191957fe5b90600052602060002090018054600181600116156101000203166002900480601f0160208091040260200160405190810160405280929190818152602001828054600181600116156101000203166002900480156119b85780601f1061198d576101008083540402835291602001916119b8565b820191906000526020600020905b81548152906001019060200180831161199b57829003601f168201915b50505050509050919050565b60068054600181600116156101000203166002900480601f016020809104026020016040519081016040528092919081815260200182805460018160011615610100020316600290048015611a5a5780601f10611a2f57610100808354040283529160200191611a5a565b820191906000526020600020905b815481529060010190602001808311611a3d57829003601f168201915b505050505081565b80600b60006101000a81548160ff02191690836008811115611a8057fe5b02179055507f551dc40198cc79684bb69e4931dba4ac16e4598792ee1c0a5000aeea366d7bb68160405180826008811115611ab757fe5b60ff16815260200191505060405180910390a150565b6000600980549050905090565b6000806008836040518082805190602001908083835b602083101515611b155780518252602082019150602081019050602083039250611af0565b6001836020036101000a0380198251168184511680821785525050505050509050019150509081526020016040518091039020905060008160030160009054906101000a900473ffffffffffffffffffffffffffffffffffffffff1673ffffffffffffffffffffffffffffffffffffffff161415611b965760009150611ba1565b806000018054905091505b50919050565b611baf612d80565b60006008846040518082805190602001908083835b602083101515611be95780518252602082019150602081019050602083039250611bc4565b6001836020036101000a0380198251168184511680821785525050505050509050019150509081526020016040518091039020905060008160030160009054906101000a900473ffffffffffffffffffffffffffffffffffffffff1673ffffffffffffffffffffffffffffffffffffffff161415611c795760206040519081016040528060008152509150611d5b565b6001830181600001805490501015611ca35760206040519081016040528060008152509150611d5b565b8060000183815481101515611cb457fe5b90600052602060002090018054600181600116156101000203166002900480601f016020809104026020016040519081016040528092919081815260200182805460018160011615610100020316600290048015611d535780601f10611d2857610100808354040283529160200191611d53565b820191906000526020600020905b815481529060010190602001808311611d3657829003601f168201915b505050505091505b5092915050565b600981815481101515611d7157fe5b90600052602060002090016000915090508054600181600116156101000203166002900480601f016020809104026020016040519081016040528092919081815260200182805460018160011615610100020316600290048015611e165780601f10611deb57610100808354040283529160200191611e16565b820191906000526020600020905b815481529060010190602001808311611df957829003601f168201915b505050505081565b6000806008866040518082805190602001908083835b602083101515611e595780518252602082019150602081019050602083039250611e34565b6001836020036101000a0380198251168184511680821785525050505050509050019150509081526020016040518091039020905060008160030160009054906101000a900473ffffffffffffffffffffffffffffffffffffffff1673ffffffffffffffffffffffffffffffffffffffff161415611f0e5760078054806001018281611ee59190612e4f565b916000526020600020900160008890919091509080519060200190611f0b929190612dcf565b50505b806000018054806001018281611f249190612e4f565b916000526020600020900160008590919091509080519060200190611f4a929190612dcf565b505084816002019080519060200190611f64929190612dcf565b50838160030160006101000a81548173ffffffffffffffffffffffffffffffffffffffff021916908373ffffffffffffffffffffffffffffffffffffffff16021790555085816001019080519060200190611fc0929190612dcf565b50806008876040518082805190602001908083835b602083101515611ffa5780518252602082019150602081019050602083039250611fd5565b6001836020036101000a03801982511681845116808217855250505050505090500191505090815260200160405180910390206000820181600001908054612043929190612e7b565b506001820181600101908054600181600116156101000203166002900461206b929190612eeb565b5060028201816002019080546001816001161561010002031660029004612093929190612eeb565b506003820160009054906101000a900473ffffffffffffffffffffffffffffffffffffffff168160030160006101000a81548173ffffffffffffffffffffffffffffffffffffffff021916908373ffffffffffffffffffffffffffffffffffffffff16021790555090505050949350505050565b60006005600881111561211657fe5b600b60009054906101000a900460ff16600881111561213157fe5b14151561213d57600080fd5b811561218e577f551dc40198cc79684bb69e4931dba4ac16e4598792ee1c0a5000aeea366d7bb660066040518082600881111561217657fe5b60ff16815260200191505060405180910390a16121d5565b7f551dc40198cc79684bb69e4931dba4ac16e4598792ee1c0a5000aeea366d7bb66005604051808260088111156121c157fe5b60ff16815260200191505060405180910390a15b60019050919050565b60048054600181600116156101000203166002900480601f0160208091040260200160405190810160405280929190818152602001828054600181600116156101000203166002900480156122745780601f1061224957610100808354040283529160200191612274565b820191906000526020600020905b81548152906001019060200180831161225757829003601f168201915b505050505081565b60006003600881111561228b57fe5b600b60009054906101000a900460ff1660088111156122a657fe5b1415156122b257600080fd5b8115612303577f551dc40198cc79684bb69e4931dba4ac16e4598792ee1c0a5000aeea366d7bb66004604051808260088111156122eb57fe5b60ff16815260200191505060405180910390a161234a565b7f551dc40198cc79684bb69e4931dba4ac16e4598792ee1c0a5000aeea366d7bb660036040518082600881111561233657fe5b60ff16815260200191505060405180910390a15b60019050919050565b6000809054906101000a900473ffffffffffffffffffffffffffffffffffffffff1681565b6000600780549050905090565b6002600881111561239257fe5b600b60009054906101000a900460ff1660088111156123ad57fe5b1415156123b957600080fd5b336000806101000a81548173ffffffffffffffffffffffffffffffffffffffff021916908373ffffffffffffffffffffffffffffffffffffffff160217905550856001908051906020019061240f929190612dcf565b5084600281905550836004908051906020019061242d929190612dcf565b508260069080519060200190612444929190612dcf565b50816005819055508060038190555061245d6003611a62565b50505050505050565b61246e612d80565b60006008836040518082805190602001908083835b6020831015156124a85780518252602082019150602081019050602083039250612483565b6001836020036101000a0380198251168184511680821785525050505050509050019150509081526020016040518091039020905060008160030160009054906101000a900473ffffffffffffffffffffffffffffffffffffffff1673ffffffffffffffffffffffffffffffffffffffff16141561253857602060405190810160405280600081525091506125fa565b80600001600182600001805490500381548110151561255357fe5b90600052602060002090018054600181600116156101000203166002900480601f0160208091040260200160405190810160405280929190818152602001828054600181600116156101000203166002900480156125f25780601f106125c7576101008083540402835291602001916125f2565b820191906000526020600020905b8154815290600101906020018083116125d557829003601f168201915b505050505091505b50919050565b60006001600881111561260f57fe5b600b60009054906101000a900460ff16600881111561262a57fe5b14151561263657600080fd5b8115612687577f551dc40198cc79684bb69e4931dba4ac16e4598792ee1c0a5000aeea366d7bb660026040518082600881111561266f57fe5b60ff16815260200191505060405180910390a16126ce565b7f551dc40198cc79684bb69e4931dba4ac16e4598792ee1c0a5000aeea366d7bb66001604051808260088111156126ba57fe5b60ff16815260200191505060405180910390a15b60019050919050565b600460088111156126e457fe5b600b60009054906101000a900460ff1660088111156126ff57fe5b14151561270b57600080fd5b336000806101000a81548173ffffffffffffffffffffffffffffffffffffffff021916908373ffffffffffffffffffffffffffffffffffffffff1602179055508560019080519060200190612761929190612dcf565b5084600281905550836004908051906020019061277f929190612dcf565b508260069080519060200190612796929190612dcf565b5081600581905550806003819055506127af6005611a62565b50505050505050565b6000600760088111156127c757fe5b600b60009054906101000a900460ff1660088111156127e257fe5b1415156127ee57600080fd5b811561283f577f551dc40198cc79684bb69e4931dba4ac16e4598792ee1c0a5000aeea366d7bb660086040518082600881111561282757fe5b60ff16815260200191505060405180910390a1612886565b7f551dc40198cc79684bb69e4931dba4ac16e4598792ee1c0a5000aeea366d7bb660076040518082600881111561287257fe5b60ff16815260200191505060405180910390a15b60019050919050565b60078181548110151561289e57fe5b90600052602060002090016000915090508054600181600116156101000203166002900480601f0160208091040260200160405190810160405280929190818152602001828054600181600116156101000203166002900480156129435780601f1061291857610100808354040283529160200191612943565b820191906000526020600020905b81548152906001019060200180831161292657829003601f168201915b505050505081565b612953612d80565b60006008836040518082805190602001908083835b60208310151561298d5780518252602082019150602081019050602083039250612968565b6001836020036101000a03801982511681845116808217855250505050505090500191505090815260200160405180910390209050806002018054600181600116156101000203166002900480601f016020809104026020016040519081016040528092919081815260200182805460018160011615610100020316600290048015612a5a5780601f10612a2f57610100808354040283529160200191612a5a565b820191906000526020600020905b815481529060010190602001808311612a3d57829003601f168201915b5050505050915050919050565b60055481565b336000806101000a81548173ffffffffffffffffffffffffffffffffffffffff021916908373ffffffffffffffffffffffffffffffffffffffff1602179055508560019080519060200190612ac3929190612dcf565b50846002819055508360049080519060200190612ae1929190612dcf565b508260069080519060200190612af8929190612dcf565b508160058190555080600381905550612b116001611a62565b50505050505050565b612b22612d80565b600782815481101515612b3157fe5b90600052602060002090018054600181600116156101000203166002900480601f016020809104026020016040519081016040528092919081815260200182805460018160011615610100020316600290048015612bd05780601f10612ba557610100808354040283529160200191612bd0565b820191906000526020600020905b815481529060010190602001808311612bb357829003601f168201915b50505050509050919050565b600b60009054906101000a900460ff1681565b60008060098054806001018281612c069190612e4f565b916000526020600020900160008890919091509080519060200190612c2c929190612dcf565b505042816000018190555084816001019080519060200190612c4f929190612dcf565b5083816002019080519060200190612c68929190612dcf565b5082816003019080519060200190612c81929190612dcf565b5080600a876040518082805190602001908083835b602083101515612cbb5780518252602082019150602081019050602083039250612c96565b6001836020036101000a03801982511681845116808217855250505050505090500191505090815260200160405180910390206000820154816000015560018201816001019080546001816001161561010002031660029004612d1f929190612eeb565b5060028201816002019080546001816001161561010002031660029004612d47929190612eeb565b5060038201816003019080546001816001161561010002031660029004612d6f929190612eeb565b509050506001915050949350505050565b602060405190810160405280600081525090565b60806040519081016040528060008152602001612daf612f72565b8152602001612dbc612f72565b8152602001612dc9612f72565b81525090565b828054600181600116156101000203166002900490600052602060002090601f016020900481019282601f10612e1057805160ff1916838001178555612e3e565b82800160010185558215612e3e579182015b82811115612e3d578251825591602001919060010190612e22565b5b509050612e4b9190612f86565b5090565b815481835581811511612e7657818360005260206000209182019101612e759190612fab565b5b505050565b828054828255906000526020600020908101928215612eda5760005260206000209182015b82811115612ed95782829080546001816001161561010002031660029004612ec9929190612eeb565b5091600101919060010190612ea0565b5b509050612ee79190612fab565b5090565b828054600181600116156101000203166002900490600052602060002090601f016020900481019282601f10612f245780548555612f61565b82800160010185558215612f6157600052602060002091601f016020900482015b82811115612f60578254825591600101919060010190612f45565b5b509050612f6e9190612f86565b5090565b602060405190810160405280600081525090565b612fa891905b80821115612fa4576000816000905550600101612f8c565b5090565b90565b612fd491905b80821115612fd05760008181612fc79190612fd7565b50600101612fb1565b5090565b90565b50805460018160011615610100020316600290046000825580601f10612ffd575061301c565b601f01602090049060005260206000209081019061301b9190612f86565b5b505600a165627a7a72305820822a3f846d8150f4a4160cd1e7cb3e6654b8a138a8dfdf9462d88a7acb151e980029a165627a7a72305820f6229359314595a8df61e2ee05be306797605f844117cf157aed284eeabe8b3e0029",
  "source": "pragma solidity ^0.4.17;\r\nimport \"./DADetails.sol\";\r\n\r\ncontract DARegister {\r\n\r\n    // FIELDS\r\n    mapping(string => address) register;\r\n    string[] daIds;\r\n\r\n    // METHODS\r\n    function registerDA (string _daId, address _address) public {\r\n        if (register[_daId] == 0x00) {\r\n            daIds.push(_daId);\r\n        }\r\n        register[_daId] = _address;\r\n\r\n    }\r\n\r\n    function getDADetailsAddress (string _daId) public view returns(address) {\r\n        return register[_daId];\r\n    }\r\n\r\n    function getDARegisterCount() public view returns(uint256) {\r\n        return daIds.length;\r\n    }\r\n\r\n    function getDARegisterId(uint256 index) public view returns(string) {\r\n        return daIds[index];\r\n    }\r\n\r\n    function createDA (string _daId, uint _dateLodged, string _description, string _lga) public {\r\n        var daDetails = new DADetails(_daId, _dateLodged, _description, _lga);\r\n        registerDA(_daId, daDetails);\r\n\r\n    }\r\n \r\n }",
  "sourcePath": "C:\\Users\\riyas_000\\Work\\CRCSI\\LandDevelopmentDigital\\src\\Blockchain-For-Land-Development-Approvals\\truffle\\contracts\\DARegister.sol",
  "compiler": {
    "name": "solc",
    "version": "0.4.19+commit.c4cbbb05.Emscripten.clang"
  },
  "schemaVersion": "2.0.0",
  "updatedAt": "2018-03-01T00:41:52.219Z"
}