{
  "contractName": "DARegister",
  "abi": [
    {
      "constant": false,
      "inputs": [
        {
          "name": "_daId",
          "type": "string"
        },
        {
          "name": "_address",
          "type": "address"
        }
      ],
      "name": "registerDA",
      "outputs": [],
      "payable": false,
      "stateMutability": "nonpayable",
      "type": "function"
    },
    {
      "constant": true,
      "inputs": [
        {
          "name": "_daId",
          "type": "string"
        }
      ],
      "name": "getDARegisterAddress",
      "outputs": [
        {
          "name": "",
          "type": "address"
        }
      ],
      "payable": false,
      "stateMutability": "view",
      "type": "function"
    },
    {
      "constant": true,
      "inputs": [],
      "name": "getDARegisterCount",
      "outputs": [
        {
          "name": "",
          "type": "uint256"
        }
      ],
      "payable": false,
      "stateMutability": "view",
      "type": "function"
    },
    {
      "constant": true,
      "inputs": [
        {
          "name": "index",
          "type": "uint256"
        }
      ],
      "name": "getDARegisterId",
      "outputs": [
        {
          "name": "",
          "type": "string"
        }
      ],
      "payable": false,
      "stateMutability": "view",
      "type": "function"
    },
    {
      "constant": false,
      "inputs": [
        {
          "name": "_daId",
          "type": "string"
        },
        {
          "name": "_dateLodged",
          "type": "uint256"
        },
        {
          "name": "_description",
          "type": "string"
        },
        {
          "name": "_lga",
          "type": "string"
        }
      ],
      "name": "createDA",
      "outputs": [],
      "payable": false,
      "stateMutability": "nonpayable",
      "type": "function"
    }
  ],
  "bytecode": "0x6060604052341561000f57600080fd5b6123e88061001e6000396000f30060606040526004361061006d576000357c0100000000000000000000000000000000000000000000000000000000900463ffffffff168063032fe5731461007257806377fac6551461010f5780638dc4dd5a1461018b57806391884a9e146102275780639a29599814610250575b600080fd5b341561007d57600080fd5b6100cd600480803590602001908201803590602001908080601f0160208091040260200160405190810160405280939291908181526020018383808284378201915050505050509190505061033c565b604051808273ffffffffffffffffffffffffffffffffffffffff1673ffffffffffffffffffffffffffffffffffffffff16815260200191505060405180910390f35b341561011a57600080fd5b610189600480803590602001908201803590602001908080601f0160208091040260200160405190810160405280939291908181526020018383808284378201915050505050509190803573ffffffffffffffffffffffffffffffffffffffff169060200190919050506103d0565b005b341561019657600080fd5b6101ac6004808035906020019091905050610564565b6040518080602001828103825283818151815260200191508051906020019080838360005b838110156101ec5780820151818401526020810190506101d1565b50505050905090810190601f1680156102195780820380516001836020036101000a031916815260200191505b509250505060405180910390f35b341561023257600080fd5b61023a610626565b6040518082815260200191505060405180910390f35b341561025b57600080fd5b61033a600480803590602001908201803590602001908080601f0160208091040260200160405190810160405280939291908181526020018383808284378201915050505050509190803590602001909190803590602001908201803590602001908080601f0160208091040260200160405190810160405280939291908181526020018383808284378201915050505050509190803590602001908201803590602001908080601f01602080910402602001604051908101604052809392919081815260200183838082843782019150505050505091905050610633565b005b600080826040518082805190602001908083835b6020831015156103755780518252602082019150602081019050602083039250610350565b6001836020036101000a038019825116818451168082178552505050505050905001915050908152602001604051809103902060009054906101000a900473ffffffffffffffffffffffffffffffffffffffff169050919050565b600080836040518082805190602001908083835b60208310151561040957805182526020820191506020810190506020830392506103e4565b6001836020036101000a038019825116818451168082178552505050505050905001915050908152602001604051809103902060009054906101000a900473ffffffffffffffffffffffffffffffffffffffff1673ffffffffffffffffffffffffffffffffffffffff1614156104b6576001805480600101828161048d91906107b8565b9160005260206000209001600084909190915090805190602001906104b39291906107e4565b50505b806000836040518082805190602001908083835b6020831015156104ef57805182526020820191506020810190506020830392506104ca565b6001836020036101000a038019825116818451168082178552505050505050905001915050908152602001604051809103902060006101000a81548173ffffffffffffffffffffffffffffffffffffffff021916908373ffffffffffffffffffffffffffffffffffffffff1602179055505050565b61056c610864565b60018281548110151561057b57fe5b90600052602060002090018054600181600116156101000203166002900480601f01602080910402602001604051908101604052809291908181526020018280546001816001161561010002031660029004801561061a5780601f106105ef5761010080835404028352916020019161061a565b820191906000526020600020905b8154815290600101906020018083116105fd57829003601f168201915b50505050509050919050565b6000600180549050905090565b600084848484610641610878565b80806020018581526020018060200180602001848103845288818151815260200191508051906020019080838360005b8381101561068c578082015181840152602081019050610671565b50505050905090810190601f1680156106b95780820380516001836020036101000a031916815260200191505b50848103835286818151815260200191508051906020019080838360005b838110156106f25780820151818401526020810190506106d7565b50505050905090810190601f16801561071f5780820380516001836020036101000a031916815260200191505b50848103825285818151815260200191508051906020019080838360005b8381101561075857808201518184015260208101905061073d565b50505050905090810190601f1680156107855780820380516001836020036101000a031916815260200191505b50975050505050505050604051809103906000f08015156107a557600080fd5b90506107b185826103d0565b5050505050565b8154818355818115116107df578183600052602060002091820191016107de9190610888565b5b505050565b828054600181600116156101000203166002900490600052602060002090601f016020900481019282601f1061082557805160ff1916838001178555610853565b82800160010185558215610853579182015b82811115610852578251825591602001919060010190610837565b5b50905061086091906108b4565b5090565b602060405190810160405280600081525090565b604051611a9b8061092283390190565b6108b191905b808211156108ad57600081816108a491906108d9565b5060010161088e565b5090565b90565b6108d691905b808211156108d25760008160009055506001016108ba565b5090565b90565b50805460018160011615610100020316600290046000825580601f106108ff575061091e565b601f01602090049060005260206000209081019061091d91906108b4565b5b505600606060405234156200001057600080fd5b60405162001a9b38038062001a9b83398101604052808051820191906020018051906020019091908051820191906020018051820191905050336000806101000a81548173ffffffffffffffffffffffffffffffffffffffff021916908373ffffffffffffffffffffffffffffffffffffffff1602179055508360019080519060200190620000a1929190620000e5565b50826002819055508160039080519060200190620000c1929190620000e5565b508060059080519060200190620000da929190620000e5565b505050505062000194565b828054600181600116156101000203166002900490600052602060002090601f016020900481019282601f106200012857805160ff191683800117855562000159565b8280016001018555821562000159579182015b82811115620001585782518255916020019190600101906200013b565b5b5090506200016891906200016c565b5090565b6200019191905b808211156200018d57600081600090555060010162000173565b5090565b90565b6118f780620001a46000396000f3006060604052600436106100e6576000357c0100000000000000000000000000000000000000000000000000000000900463ffffffff16806306c28ed7146100eb5780630b4fc64c146101795780631bc52d9b1461021657806337c8dacc1461023f5780633b452b8e146102cd578063486bce521461035b5780634b0a3e7b146103cc57806351b01d86146104ab5780637284e416146105c557806388e687ea146106535780638f20373a146106a85780639b0b6886146106d1578063cfc4f820146107a7578063d386c22614610843578063d6ed2f0614610919578063ed7c238d14610942575b600080fd5b34156100f657600080fd5b6100fe6109de565b6040518080602001828103825283818151815260200191508051906020019080838360005b8381101561013e578082015181840152602081019050610123565b50505050905090810190601f16801561016b5780820380516001836020036101000a031916815260200191505b509250505060405180910390f35b341561018457600080fd5b6101d4600480803590602001908201803590602001908080601f01602080910402602001604051908101604052809392919081815260200183838082843782019150505050505091905050610a21565b604051808273ffffffffffffffffffffffffffffffffffffffff1673ffffffffffffffffffffffffffffffffffffffff16815260200191505060405180910390f35b341561022157600080fd5b610229610abe565b6040518082815260200191505060405180910390f35b341561024a57600080fd5b610252610ac4565b6040518080602001828103825283818151815260200191508051906020019080838360005b83811015610292578082015181840152602081019050610277565b50505050905090810190601f1680156102bf5780820380516001836020036101000a031916815260200191505b509250505060405180910390f35b34156102d857600080fd5b6102e0610b62565b6040518080602001828103825283818151815260200191508051906020019080838360005b83811015610320578082015181840152602081019050610305565b50505050905090810190601f16801561034d5780820380516001836020036101000a031916815260200191505b509250505060405180910390f35b341561036657600080fd5b6103b6600480803590602001908201803590602001908080601f01602080910402602001604051908101604052809392919081815260200183838082843782019150505050505091905050610c00565b6040518082815260200191505060405180910390f35b34156103d757600080fd5b610430600480803590602001908201803590602001908080601f01602080910402602001604051908101604052809392919081815260200183838082843782019150505050505091908035906020019091905050610ccd565b6040518080602001828103825283818151815260200191508051906020019080838360005b83811015610470578082015181840152602081019050610455565b50505050905090810190601f16801561049d5780820380516001836020036101000a031916815260200191505b509250505060405180910390f35b34156104b657600080fd5b6105ab600480803590602001908201803590602001908080601f0160208091040260200160405190810160405280939291908181526020018383808284378201915050505050509190803590602001908201803590602001908080601f0160208091040260200160405190810160405280939291908181526020018383808284378201915050505050509190803573ffffffffffffffffffffffffffffffffffffffff1690602001909190803590602001908201803590602001908080601f01602080910402602001604051908101604052809392919081815260200183838082843782019150505050505091905050610e88565b604051808215151515815260200191505060405180910390f35b34156105d057600080fd5b6105d8611171565b6040518080602001828103825283818151815260200191508051906020019080838360005b838110156106185780820151818401526020810190506105fd565b50505050905090810190601f1680156106455780820380516001836020036101000a031916815260200191505b509250505060405180910390f35b341561065e57600080fd5b61066661120f565b604051808273ffffffffffffffffffffffffffffffffffffffff1673ffffffffffffffffffffffffffffffffffffffff16815260200191505060405180910390f35b34156106b357600080fd5b6106bb611234565b6040518082815260200191505060405180910390f35b34156106dc57600080fd5b61072c600480803590602001908201803590602001908080601f01602080910402602001604051908101604052809392919081815260200183838082843782019150505050505091905050611241565b6040518080602001828103825283818151815260200191508051906020019080838360005b8381101561076c578082015181840152602081019050610751565b50505050905090810190601f1680156107995780820380516001836020036101000a031916815260200191505b509250505060405180910390f35b34156107b257600080fd5b6107c860048080359060200190919050506113db565b6040518080602001828103825283818151815260200191508051906020019080838360005b838110156108085780820151818401526020810190506107ed565b50505050905090810190601f1680156108355780820380516001836020036101000a031916815260200191505b509250505060405180910390f35b341561084e57600080fd5b61089e600480803590602001908201803590602001908080601f01602080910402602001604051908101604052809392919081815260200183838082843782019150505050505091905050611497565b6040518080602001828103825283818151815260200191508051906020019080838360005b838110156108de5780820151818401526020810190506108c3565b50505050905090810190601f16801561090b5780820380516001836020036101000a031916815260200191505b509250505060405180910390f35b341561092457600080fd5b61092c6115b3565b6040518082815260200191505060405180910390f35b341561094d57600080fd5b61096360048080359060200190919050506115b9565b6040518080602001828103825283818151815260200191508051906020019080838360005b838110156109a3578082015181840152602081019050610988565b50505050905090810190601f1680156109d05780820380516001836020036101000a031916815260200191505b509250505060405180910390f35b6109e661167b565b6040805190810160405280600281526020017f5b5d000000000000000000000000000000000000000000000000000000000000815250905090565b6000806007836040518082805190602001908083835b602083101515610a5c5780518252602082019150602081019050602083039250610a37565b6001836020036101000a038019825116818451168082178552505050505050905001915050908152602001604051809103902090508060030160009054906101000a900473ffffffffffffffffffffffffffffffffffffffff16915050919050565b60025481565b60018054600181600116156101000203166002900480601f016020809104026020016040519081016040528092919081815260200182805460018160011615610100020316600290048015610b5a5780601f10610b2f57610100808354040283529160200191610b5a565b820191906000526020600020905b815481529060010190602001808311610b3d57829003601f168201915b505050505081565b60058054600181600116156101000203166002900480601f016020809104026020016040519081016040528092919081815260200182805460018160011615610100020316600290048015610bf85780601f10610bcd57610100808354040283529160200191610bf8565b820191906000526020600020905b815481529060010190602001808311610bdb57829003601f168201915b505050505081565b6000806007836040518082805190602001908083835b602083101515610c3b5780518252602082019150602081019050602083039250610c16565b6001836020036101000a0380198251168184511680821785525050505050509050019150509081526020016040518091039020905060008160030160009054906101000a900473ffffffffffffffffffffffffffffffffffffffff1673ffffffffffffffffffffffffffffffffffffffff161415610cbc5760009150610cc7565b806000018054905091505b50919050565b610cd561167b565b60006007846040518082805190602001908083835b602083101515610d0f5780518252602082019150602081019050602083039250610cea565b6001836020036101000a0380198251168184511680821785525050505050509050019150509081526020016040518091039020905060008160030160009054906101000a900473ffffffffffffffffffffffffffffffffffffffff1673ffffffffffffffffffffffffffffffffffffffff161415610d9f5760206040519081016040528060008152509150610e81565b6001830181600001805490501015610dc95760206040519081016040528060008152509150610e81565b8060000183815481101515610dda57fe5b90600052602060002090018054600181600116156101000203166002900480601f016020809104026020016040519081016040528092919081815260200182805460018160011615610100020316600290048015610e795780601f10610e4e57610100808354040283529160200191610e79565b820191906000526020600020905b815481529060010190602001808311610e5c57829003601f168201915b505050505091505b5092915050565b6000806007866040518082805190602001908083835b602083101515610ec35780518252602082019150602081019050602083039250610e9e565b6001836020036101000a0380198251168184511680821785525050505050509050019150509081526020016040518091039020905060008160030160009054906101000a900473ffffffffffffffffffffffffffffffffffffffff1673ffffffffffffffffffffffffffffffffffffffff161415610f785760068054806001018281610f4f919061168f565b916000526020600020900160008890919091509080519060200190610f759291906116bb565b50505b806000018054806001018281610f8e919061168f565b916000526020600020900160008590919091509080519060200190610fb49291906116bb565b505084816002019080519060200190610fce9291906116bb565b50838160030160006101000a81548173ffffffffffffffffffffffffffffffffffffffff021916908373ffffffffffffffffffffffffffffffffffffffff1602179055508581600101908051906020019061102a9291906116bb565b50806007876040518082805190602001908083835b602083101515611064578051825260208201915060208101905060208303925061103f565b6001836020036101000a038019825116818451168082178552505050505050905001915050908152602001604051809103902060008201816000019080546110ad92919061173b565b50600182018160010190805460018160011615610100020316600290046110d59291906117ab565b50600282018160020190805460018160011615610100020316600290046110fd9291906117ab565b506003820160009054906101000a900473ffffffffffffffffffffffffffffffffffffffff168160030160006101000a81548173ffffffffffffffffffffffffffffffffffffffff021916908373ffffffffffffffffffffffffffffffffffffffff16021790555090505050949350505050565b60038054600181600116156101000203166002900480601f0160208091040260200160405190810160405280929190818152602001828054600181600116156101000203166002900480156112075780601f106111dc57610100808354040283529160200191611207565b820191906000526020600020905b8154815290600101906020018083116111ea57829003601f168201915b505050505081565b6000809054906101000a900473ffffffffffffffffffffffffffffffffffffffff1681565b6000600680549050905090565b61124961167b565b60006007836040518082805190602001908083835b602083101515611283578051825260208201915060208101905060208303925061125e565b6001836020036101000a0380198251168184511680821785525050505050509050019150509081526020016040518091039020905060008160030160009054906101000a900473ffffffffffffffffffffffffffffffffffffffff1673ffffffffffffffffffffffffffffffffffffffff16141561131357602060405190810160405280600081525091506113d5565b80600001600182600001805490500381548110151561132e57fe5b90600052602060002090018054600181600116156101000203166002900480601f0160208091040260200160405190810160405280929190818152602001828054600181600116156101000203166002900480156113cd5780601f106113a2576101008083540402835291602001916113cd565b820191906000526020600020905b8154815290600101906020018083116113b057829003601f168201915b505050505091505b50919050565b6006818154811015156113ea57fe5b90600052602060002090016000915090508054600181600116156101000203166002900480601f01602080910402602001604051908101604052809291908181526020018280546001816001161561010002031660029004801561148f5780601f106114645761010080835404028352916020019161148f565b820191906000526020600020905b81548152906001019060200180831161147257829003601f168201915b505050505081565b61149f61167b565b60006007836040518082805190602001908083835b6020831015156114d957805182526020820191506020810190506020830392506114b4565b6001836020036101000a03801982511681845116808217855250505050505090500191505090815260200160405180910390209050806002018054600181600116156101000203166002900480601f0160208091040260200160405190810160405280929190818152602001828054600181600116156101000203166002900480156115a65780601f1061157b576101008083540402835291602001916115a6565b820191906000526020600020905b81548152906001019060200180831161158957829003601f168201915b5050505050915050919050565b60045481565b6115c161167b565b6006828154811015156115d057fe5b90600052602060002090018054600181600116156101000203166002900480601f01602080910402602001604051908101604052809291908181526020018280546001816001161561010002031660029004801561166f5780601f106116445761010080835404028352916020019161166f565b820191906000526020600020905b81548152906001019060200180831161165257829003601f168201915b50505050509050919050565b602060405190810160405280600081525090565b8154818355818115116116b6578183600052602060002091820191016116b59190611832565b5b505050565b828054600181600116156101000203166002900490600052602060002090601f016020900481019282601f106116fc57805160ff191683800117855561172a565b8280016001018555821561172a579182015b8281111561172957825182559160200191906001019061170e565b5b509050611737919061185e565b5090565b82805482825590600052602060002090810192821561179a5760005260206000209182015b8281111561179957828290805460018160011615610100020316600290046117899291906117ab565b5091600101919060010190611760565b5b5090506117a79190611832565b5090565b828054600181600116156101000203166002900490600052602060002090601f016020900481019282601f106117e45780548555611821565b8280016001018555821561182157600052602060002091601f016020900482015b82811115611820578254825591600101919060010190611805565b5b50905061182e919061185e565b5090565b61185b91905b80821115611857576000818161184e9190611883565b50600101611838565b5090565b90565b61188091905b8082111561187c576000816000905550600101611864565b5090565b90565b50805460018160011615610100020316600290046000825580601f106118a957506118c8565b601f0160209004906000526020600020908101906118c7919061185e565b5b505600a165627a7a72305820513e47f1ac7589b118d5a379e05f9041f5c9daf771f12c6e4a4dc30f7503a8af0029a165627a7a7230582036fb959535b578ee3d7842d8054e96594185c7eaf7363bdfcf19ae3703fddd130029",
  "source": "pragma solidity ^0.4.17;\r\nimport \"./DADetails.sol\";\r\n\r\ncontract DARegister {\r\n\r\n    // FIELDS\r\n    mapping(string => address) register;\r\n    string[] daIds;\r\n\r\n    // METHODS\r\n    function registerDA (string _daId, address _address) public {\r\n        if (register[_daId] == 0x00) {\r\n            daIds.push(_daId);\r\n        }\r\n        register[_daId] = _address;\r\n\r\n    }\r\n\r\n    function getDARegisterAddress (string _daId) public view returns(address) {\r\n        return register[_daId];\r\n    }\r\n\r\n    function getDARegisterCount() public view returns(uint256) {\r\n        return daIds.length;\r\n    }\r\n\r\n    function getDARegisterId(uint256 index) public view returns(string) {\r\n        return daIds[index];\r\n    }\r\n\r\n    function createDA (string _daId, uint _dateLodged, string _description, string _lga) public {\r\n        var daDetails = new DADetails(_daId, _dateLodged, _description, _lga);\r\n        registerDA(_daId, daDetails);\r\n\r\n    }\r\n \r\n }",
  "sourcePath": "C:\\Users\\pkenderdine\\Documents\\GitHub\\Blockchain-For-Land-Development-Approvals\\truffle\\contracts\\DARegister.sol",
  "compiler": {
    "name": "solc",
    "version": "0.4.19+commit.c4cbbb05.Emscripten.clang"
  },
  "schemaVersion": "1.0.1",
  "updatedAt": "2018-02-28T06:36:53.957Z"
}